{
  "contractName": "Lottery",
  "abi": [
    {
      "inputs": [
        {
          "internalType": "address",
          "name": "_usdt",
          "type": "address"
        }
      ],
      "stateMutability": "nonpayable",
      "type": "constructor"
    },
    {
      "anonymous": false,
      "inputs": [
        {
          "indexed": false,
          "internalType": "uint256",
          "name": "lotteryId",
          "type": "uint256"
        },
        {
          "indexed": false,
          "internalType": "uint256",
          "name": "ticketSupply",
          "type": "uint256"
        },
        {
          "indexed": false,
          "internalType": "uint8",
          "name": "finalNumber",
          "type": "uint8"
        },
        {
          "components": [
            {
              "internalType": "address",
              "name": "owner",
              "type": "address"
            },
            {
              "internalType": "uint8",
              "name": "numbers",
              "type": "uint8"
            },
            {
              "internalType": "uint256",
              "name": "lotteryId",
              "type": "uint256"
            },
            {
              "internalType": "uint8",
              "name": "numberOfTickets",
              "type": "uint8"
            },
            {
              "internalType": "uint256",
              "name": "winAmount",
              "type": "uint256"
            }
          ],
          "indexed": false,
          "internalType": "struct ITicketNFT.TicketInfo[]",
          "name": "winningTickets",
          "type": "tuple[]"
        }
      ],
      "name": "LotteryClose",
      "type": "event"
    },
    {
      "anonymous": false,
      "inputs": [
        {
          "indexed": false,
          "internalType": "uint256",
          "name": "lotteryId",
          "type": "uint256"
        },
        {
          "indexed": false,
          "internalType": "uint256",
          "name": "ticketSupply",
          "type": "uint256"
        }
      ],
      "name": "LotteryOpen",
      "type": "event"
    },
    {
      "anonymous": false,
      "inputs": [
        {
          "indexed": true,
          "internalType": "address",
          "name": "previousOwner",
          "type": "address"
        },
        {
          "indexed": true,
          "internalType": "address",
          "name": "newOwner",
          "type": "address"
        }
      ],
      "name": "OwnershipTransferred",
      "type": "event"
    },
    {
      "anonymous": false,
      "inputs": [
        {
          "indexed": false,
          "internalType": "uint256",
          "name": "currentPrizePool",
          "type": "uint256"
        },
        {
          "indexed": false,
          "internalType": "uint256",
          "name": "currentLotteryId",
          "type": "uint256"
        }
      ],
      "name": "PrizePoolChanged",
      "type": "event"
    },
    {
      "anonymous": false,
      "inputs": [
        {
          "indexed": false,
          "internalType": "uint256",
          "name": "lotteryId",
          "type": "uint256"
        },
        {
          "indexed": false,
          "internalType": "bytes32",
          "name": "requestId",
          "type": "bytes32"
        }
      ],
      "name": "RequestNumbers",
      "type": "event"
    },
    {
      "inputs": [],
      "name": "MAX_NUMBER_TICKETS_PER_BUY",
      "outputs": [
        {
          "internalType": "uint256",
          "name": "",
          "type": "uint256"
        }
      ],
      "stateMutability": "view",
      "type": "function",
      "constant": true
    },
    {
      "inputs": [],
      "name": "MAX_TREASURY_FEE",
      "outputs": [
        {
          "internalType": "uint256",
          "name": "",
          "type": "uint256"
        }
      ],
      "stateMutability": "view",
      "type": "function",
      "constant": true
    },
    {
      "inputs": [],
      "name": "operatorAddress",
      "outputs": [
        {
          "internalType": "address",
          "name": "",
          "type": "address"
        }
      ],
      "stateMutability": "view",
      "type": "function",
      "constant": true
    },
    {
      "inputs": [],
      "name": "owner",
      "outputs": [
        {
          "internalType": "address",
          "name": "",
          "type": "address"
        }
      ],
      "stateMutability": "view",
      "type": "function",
      "constant": true
    },
    {
      "inputs": [],
      "name": "renounceOwnership",
      "outputs": [],
      "stateMutability": "nonpayable",
      "type": "function"
    },
    {
      "inputs": [
        {
          "internalType": "address",
          "name": "newOwner",
          "type": "address"
        }
      ],
      "name": "transferOwnership",
      "outputs": [],
      "stateMutability": "nonpayable",
      "type": "function"
    },
    {
      "inputs": [],
      "name": "treasuryAddress",
      "outputs": [
        {
          "internalType": "address",
          "name": "",
          "type": "address"
        }
      ],
      "stateMutability": "view",
      "type": "function",
      "constant": true
    },
    {
      "inputs": [
        {
          "internalType": "address",
          "name": "_TicketNFT",
          "type": "address"
        },
        {
          "internalType": "address",
          "name": "_IRandomNumberGenerator",
          "type": "address"
        }
      ],
      "name": "initialize",
      "outputs": [],
      "stateMutability": "nonpayable",
      "type": "function"
    },
    {
      "inputs": [
        {
          "internalType": "uint256",
          "name": "_lotteryId",
          "type": "uint256"
        },
        {
          "internalType": "uint256",
          "name": "_numberOfTickets",
          "type": "uint256"
        }
      ],
      "name": "costToBuyTickets",
      "outputs": [
        {
          "internalType": "uint256",
          "name": "totalCost",
          "type": "uint256"
        }
      ],
      "stateMutability": "view",
      "type": "function",
      "constant": true
    },
    {
      "inputs": [
        {
          "internalType": "uint256",
          "name": "_lotteryId",
          "type": "uint256"
        }
      ],
      "name": "getBasicLottoInfo",
      "outputs": [
        {
          "components": [
            {
              "internalType": "uint256",
              "name": "prizePool",
              "type": "uint256"
            },
            {
              "internalType": "uint256",
              "name": "lotteryID",
              "type": "uint256"
            },
            {
              "internalType": "enum Lottery.Status",
              "name": "lotteryStatus",
              "type": "uint8"
            },
            {
              "internalType": "uint256",
              "name": "amountCollectedInUSDT",
              "type": "uint256"
            },
            {
              "internalType": "uint256",
              "name": "costPerTicket",
              "type": "uint256"
            },
            {
              "internalType": "uint256",
              "name": "startingTimestamp",
              "type": "uint256"
            },
            {
              "internalType": "uint256",
              "name": "closingTimestamp",
              "type": "uint256"
            },
            {
              "internalType": "uint8",
              "name": "winningNumbers",
              "type": "uint8"
            },
            {
              "internalType": "uint256",
              "name": "treasuryFee",
              "type": "uint256"
            },
            {
              "internalType": "uint256",
              "name": "firstTicketId",
              "type": "uint256"
            }
          ],
          "internalType": "struct Lottery.LottoInfo",
          "name": "",
          "type": "tuple"
        }
      ],
      "stateMutability": "view",
      "type": "function",
      "constant": true
    },
    {
      "inputs": [],
      "name": "getCurrentLottoInfo",
      "outputs": [
        {
          "components": [
            {
              "internalType": "uint256",
              "name": "prizePool",
              "type": "uint256"
            },
            {
              "internalType": "uint256",
              "name": "lotteryID",
              "type": "uint256"
            },
            {
              "internalType": "enum Lottery.Status",
              "name": "lotteryStatus",
              "type": "uint8"
            },
            {
              "internalType": "uint256",
              "name": "amountCollectedInUSDT",
              "type": "uint256"
            },
            {
              "internalType": "uint256",
              "name": "costPerTicket",
              "type": "uint256"
            },
            {
              "internalType": "uint256",
              "name": "startingTimestamp",
              "type": "uint256"
            },
            {
              "internalType": "uint256",
              "name": "closingTimestamp",
              "type": "uint256"
            },
            {
              "internalType": "uint8",
              "name": "winningNumbers",
              "type": "uint8"
            },
            {
              "internalType": "uint256",
              "name": "treasuryFee",
              "type": "uint256"
            },
            {
              "internalType": "uint256",
              "name": "firstTicketId",
              "type": "uint256"
            }
          ],
          "internalType": "struct Lottery.LottoInfo",
          "name": "",
          "type": "tuple"
        }
      ],
      "stateMutability": "view",
      "type": "function",
      "constant": true
    },
    {
      "inputs": [],
      "name": "viewCurrentLotteryId",
      "outputs": [
        {
          "internalType": "uint256",
          "name": "",
          "type": "uint256"
        }
      ],
      "stateMutability": "view",
      "type": "function",
      "constant": true
    },
    {
      "inputs": [
        {
          "internalType": "uint256",
          "name": "_costPerTicket",
          "type": "uint256"
        },
        {
          "internalType": "uint256",
          "name": "_closingTimestamp",
          "type": "uint256"
        },
        {
          "internalType": "uint256",
          "name": "_treasuryFee",
          "type": "uint256"
        }
      ],
      "name": "startLottery",
      "outputs": [
        {
          "internalType": "uint256",
          "name": "lotteryId",
          "type": "uint256"
        }
      ],
      "stateMutability": "nonpayable",
      "type": "function"
    },
    {
      "inputs": [
        {
          "internalType": "uint256",
          "name": "_amount",
          "type": "uint256"
        }
      ],
      "name": "withdrawUSDT",
      "outputs": [],
      "stateMutability": "nonpayable",
      "type": "function"
    },
    {
      "inputs": [
        {
          "internalType": "uint256",
          "name": "_lotteryId",
          "type": "uint256"
        },
        {
          "internalType": "uint8",
          "name": "_numberOfTickets",
          "type": "uint8"
        },
        {
          "internalType": "uint8",
          "name": "_chosenNumbersForEachTicket",
          "type": "uint8"
        }
      ],
      "name": "buyTickets",
      "outputs": [],
      "stateMutability": "nonpayable",
      "type": "function"
    },
    {
      "inputs": [
        {
          "internalType": "uint256",
          "name": "_lotteryId",
          "type": "uint256"
        }
      ],
      "name": "closeLottery",
      "outputs": [],
      "stateMutability": "nonpayable",
      "type": "function"
    },
    {
      "inputs": [
        {
          "internalType": "uint256",
          "name": "_lotteryId",
          "type": "uint256"
        },
        {
          "internalType": "bytes32",
          "name": "_requestId",
          "type": "bytes32"
        },
        {
          "internalType": "uint256",
          "name": "_randomNumber",
          "type": "uint256"
        }
      ],
      "name": "numbersDrawn",
      "outputs": [],
      "stateMutability": "nonpayable",
      "type": "function"
    },
    {
      "inputs": [
        {
          "internalType": "address",
          "name": "_operatorAddress",
          "type": "address"
        },
        {
          "internalType": "address",
          "name": "_treasuryAddress",
          "type": "address"
        }
      ],
      "name": "setOperatorAndTreasuryAddresses",
      "outputs": [],
      "stateMutability": "nonpayable",
      "type": "function"
    },
    {
      "inputs": [],
      "name": "getCurrentTime",
      "outputs": [
        {
          "internalType": "uint256",
          "name": "",
          "type": "uint256"
        }
      ],
      "stateMutability": "view",
      "type": "function",
      "constant": true
    }
  ],
  "bytecode": "0x60806040523480156200001157600080fd5b50604051620044a5380380620044a583398181016040528101906200003791906200024e565b620000576200004b6200011860201b60201c565b6200012060201b60201c565b60018081905550600073ffffffffffffffffffffffffffffffffffffffff168173ffffffffffffffffffffffffffffffffffffffff1603620000d0576040517f08c379a0000000000000000000000000000000000000000000000000000000008152600401620000c790620002e1565b60405180910390fd5b80600460006101000a81548173ffffffffffffffffffffffffffffffffffffffff021916908373ffffffffffffffffffffffffffffffffffffffff1602179055505062000303565b600033905090565b60008060009054906101000a900473ffffffffffffffffffffffffffffffffffffffff169050816000806101000a81548173ffffffffffffffffffffffffffffffffffffffff021916908373ffffffffffffffffffffffffffffffffffffffff1602179055508173ffffffffffffffffffffffffffffffffffffffff168173ffffffffffffffffffffffffffffffffffffffff167f8be0079c531659141344cd1fd0a4f28419497f9722a3daafe3b4186f6b6457e060405160405180910390a35050565b600080fd5b600073ffffffffffffffffffffffffffffffffffffffff82169050919050565b60006200021682620001e9565b9050919050565b620002288162000209565b81146200023457600080fd5b50565b60008151905062000248816200021d565b92915050565b600060208284031215620002675762000266620001e4565b5b6000620002778482850162000237565b91505092915050565b600082825260208201905092915050565b7f436f6e7472616374732063616e6e6f7420626520302061646472657373000000600082015250565b6000620002c9601d8362000280565b9150620002d68262000291565b602082019050919050565b60006020820190508181036000830152620002fc81620002ba565b9050919050565b61419280620003136000396000f3fe608060405234801561001057600080fd5b50600436106101215760003560e01c806358eead98116100ad578063c5f956af11610071578063c5f956af146102d0578063da476755146102ee578063e97fc1621461031e578063f2b3c8091461033a578063f2fde38b1461035857610121565b806358eead9814610250578063715018a61461026e57806380a06160146102785780638da5cb5b146102965780639d8ca531146102b457610121565b80632cff0b6d116100f45780632cff0b6d1461019c5780633ea521ef146101cc578063485cc955146101e85780634f7d93db146102045780634f807c3a1461023457610121565b8063100d003914610126578063127effb21461014257806329cb924d146101605780632bf586731461017e575b600080fd5b610140600480360381019061013b9190612634565b610374565b005b61014a610554565b6040516101579190612683565b60405180910390f35b61016861057a565b60405161017591906126b7565b60405180910390f35b610186610582565b60405161019391906126b7565b60405180910390f35b6101b660048036038101906101b191906126fe565b610587565b6040516101c391906126b7565b60405180910390f35b6101e660048036038101906101e19190612751565b610a2e565b005b61020260048036038101906101fd9190612634565b610b4e565b005b61021e6004803603810190610219919061277e565b610dde565b60405161022b91906126b7565b60405180910390f35b61024e600480360381019061024991906127f7565b610e16565b005b61025861137e565b60405161026591906129ab565b60405180910390f35b610276611454565b005b6102806114dc565b60405161028d91906126b7565b60405180910390f35b61029e6114e6565b6040516102ab9190612683565b60405180910390f35b6102ce60048036038101906102c99190612751565b61150f565b005b6102d86117a3565b6040516102e59190612683565b60405180910390f35b61030860048036038101906103039190612751565b6117c9565b60405161031591906129ab565b60405180910390f35b610338600480360381019061033391906129fd565b61189f565b005b610342611fb2565b60405161034f91906126b7565b60405180910390f35b610372600480360381019061036d9190612a50565b611fb8565b005b61037c6120af565b73ffffffffffffffffffffffffffffffffffffffff1661039a6114e6565b73ffffffffffffffffffffffffffffffffffffffff16146103f0576040517f08c379a00000000000000000000000000000000000000000000000000000000081526004016103e790612ada565b60405180910390fd5b600073ffffffffffffffffffffffffffffffffffffffff168273ffffffffffffffffffffffffffffffffffffffff160361045f576040517f08c379a000000000000000000000000000000000000000000000000000000000815260040161045690612b46565b60405180910390fd5b600073ffffffffffffffffffffffffffffffffffffffff168173ffffffffffffffffffffffffffffffffffffffff16036104ce576040517f08c379a00000000000000000000000000000000000000000000000000000000081526004016104c590612b46565b60405180910390fd5b81600260006101000a81548173ffffffffffffffffffffffffffffffffffffffff021916908373ffffffffffffffffffffffffffffffffffffffff16021790555080600360006101000a81548173ffffffffffffffffffffffffffffffffffffffff021916908373ffffffffffffffffffffffffffffffffffffffff1602179055505050565b600260009054906101000a900473ffffffffffffffffffffffffffffffffffffffff1681565b600042905090565b606481565b6000600260009054906101000a900473ffffffffffffffffffffffffffffffffffffffff1673ffffffffffffffffffffffffffffffffffffffff163373ffffffffffffffffffffffffffffffffffffffff1614610619576040517f08c379a000000000000000000000000000000000000000000000000000000000815260040161061090612bb2565b60405180910390fd5b6000840361065c576040517f08c379a000000000000000000000000000000000000000000000000000000000815260040161065390612c1e565b60405180910390fd5b82421061069e576040517f08c379a000000000000000000000000000000000000000000000000000000000815260040161069590612c8a565b60405180910390fd5b600060085414806106f757506002808111156106bd576106bc612859565b5b600a6000600854815260200190815260200160002060020160009054906101000a900460ff1660028111156106f5576106f4612859565b5b145b610736576040517f08c379a000000000000000000000000000000000000000000000000000000000815260040161072d90612cf6565b60405180910390fd5b61138882111561077b576040517f08c379a000000000000000000000000000000000000000000000000000000000815260040161077290612d62565b60405180910390fd5b61079160016008546120b790919063ffffffff16565b600881905550600854905060006040518061014001604052806009548152602001838152602001600060028111156107cc576107cb612859565b5b815260200160008152602001868152602001428152602001858152602001606f60ff16815260200184815260200161089e6001600560009054906101000a900473ffffffffffffffffffffffffffffffffffffffff1673ffffffffffffffffffffffffffffffffffffffff1663bc49516b6040518163ffffffff1660e01b8152600401602060405180830381865afa15801561086c573d6000803e3d6000fd5b505050506040513d601f19601f820116820180604052508101906108909190612d97565b6120b790919063ffffffff16565b815250905080600a6000848152602001908152602001600020600082015181600001556020820151816001015560408201518160020160006101000a81548160ff021916908360028111156108f6576108f5612859565b5b0217905550606082015181600301556080820151816004015560a0820151816005015560c0820151816006015560e08201518160070160006101000a81548160ff021916908360ff160217905550610100820151816008015561012082015181600901559050507fce7176db4e5b6d07ad0f0ecf9523a01d98aa268b888a199592cb5b1e40615c4682600560009054906101000a900473ffffffffffffffffffffffffffffffffffffffff1673ffffffffffffffffffffffffffffffffffffffff1663bc49516b6040518163ffffffff1660e01b8152600401602060405180830381865afa1580156109ec573d6000803e3d6000fd5b505050506040513d601f19601f82011682018060405250810190610a109190612d97565b604051610a1e929190612dc4565b60405180910390a1509392505050565b610a366120af565b73ffffffffffffffffffffffffffffffffffffffff16610a546114e6565b73ffffffffffffffffffffffffffffffffffffffff1614610aaa576040517f08c379a0000000000000000000000000000000000000000000000000000000008152600401610aa190612ada565b60405180910390fd5b600460009054906101000a900473ffffffffffffffffffffffffffffffffffffffff1673ffffffffffffffffffffffffffffffffffffffff1663a9059cbb33836040518363ffffffff1660e01b8152600401610b07929190612ded565b6020604051808303816000875af1158015610b26573d6000803e3d6000fd5b505050506040513d601f19601f82011682018060405250810190610b4a9190612e4e565b5050565b600060159054906101000a900460ff16610b7857600060149054906101000a900460ff1615610b81565b610b806120cd565b5b610bc0576040517f08c379a0000000000000000000000000000000000000000000000000000000008152600401610bb790612eed565b60405180910390fd5b60008060159054906101000a900460ff161590508015610c11576001600060156101000a81548160ff0219169083151502179055506001600060146101000a81548160ff0219169083151502179055505b610c196120af565b73ffffffffffffffffffffffffffffffffffffffff16610c376114e6565b73ffffffffffffffffffffffffffffffffffffffff1614610c8d576040517f08c379a0000000000000000000000000000000000000000000000000000000008152600401610c8490612ada565b60405180910390fd5b600073ffffffffffffffffffffffffffffffffffffffff168373ffffffffffffffffffffffffffffffffffffffff1614158015610cf75750600073ffffffffffffffffffffffffffffffffffffffff168273ffffffffffffffffffffffffffffffffffffffff1614155b610d36576040517f08c379a0000000000000000000000000000000000000000000000000000000008152600401610d2d90612f59565b60405180910390fd5b82600560006101000a81548173ffffffffffffffffffffffffffffffffffffffff021916908373ffffffffffffffffffffffffffffffffffffffff16021790555081600660006101000a81548173ffffffffffffffffffffffffffffffffffffffff021916908373ffffffffffffffffffffffffffffffffffffffff1602179055508015610dd95760008060156101000a81548160ff0219169083151502179055505b505050565b600080600a6000858152602001908152602001600020600401549050610e0d83826120de90919063ffffffff16565b91505092915050565b610e353373ffffffffffffffffffffffffffffffffffffffff166120f4565b15610e75576040517f08c379a0000000000000000000000000000000000000000000000000000000008152600401610e6c90612fc5565b60405180910390fd5b3273ffffffffffffffffffffffffffffffffffffffff163373ffffffffffffffffffffffffffffffffffffffff1614610ee3576040517f08c379a0000000000000000000000000000000000000000000000000000000008152600401610eda90613031565b60405180910390fd5b600260015403610f28576040517f08c379a0000000000000000000000000000000000000000000000000000000008152600401610f1f9061309d565b60405180910390fd5b6002600181905550600a600084815260200190815260200160002060050154610f4f61057a565b1015610f90576040517f08c379a0000000000000000000000000000000000000000000000000000000008152600401610f8790613109565b60405180910390fd5b600a600084815260200190815260200160002060060154610faf61057a565b10610fef576040517f08c379a0000000000000000000000000000000000000000000000000000000008152600401610fe690613175565b60405180910390fd5b60028081111561100257611001612859565b5b600a600085815260200190815260200160002060020160009054906101000a900460ff16600281111561103857611037612859565b5b036110a25761104561057a565b600a600085815260200190815260200160002060050154106110a1576000600a600085815260200190815260200160002060020160006101000a81548160ff0219169083600281111561109b5761109a612859565b5b02179055505b5b600060028111156110b6576110b5612859565b5b600a600085815260200190815260200160002060020160009054906101000a900460ff1660028111156110ec576110eb612859565b5b1461112c576040517f08c379a0000000000000000000000000000000000000000000000000000000008152600401611123906131e1565b60405180910390fd5b60648260ff161115611173576040517f08c379a000000000000000000000000000000000000000000000000000000000815260040161116a9061324d565b60405180910390fd5b60638160ff161115801561118b575060008160ff1610155b6111ca576040517f08c379a00000000000000000000000000000000000000000000000000000000081526004016111c1906132b9565b60405180910390fd5b60006111d9848460ff16610dde565b905061122a333083600460009054906101000a900473ffffffffffffffffffffffffffffffffffffffff1673ffffffffffffffffffffffffffffffffffffffff16612117909392919063ffffffff16565b61123f816009546120b790919063ffffffff16565b60098190555080600a6000868152602001908152602001600020600301600082825461126b9190613308565b92505081905550600954600a600086815260200190815260200160002060000181905550600560009054906101000a900473ffffffffffffffffffffffffffffffffffffffff1673ffffffffffffffffffffffffffffffffffffffff1663867f5168338686866040518563ffffffff1660e01b81526004016112f0949392919061336d565b6020604051808303816000875af115801561130f573d6000803e3d6000fd5b505050506040513d601f19601f820116820180604052508101906113339190612d97565b507f18d944b97ba06c73d80013e53a5c6c7b8f6273d17cdc0a8885eeac06190ea95e600954600854604051611369929190612dc4565b60405180910390a15060018081905550505050565b61138661255a565b600a600060085481526020019081526020016000206040518061014001604052908160008201548152602001600182015481526020016002820160009054906101000a900460ff1660028111156113e0576113df612859565b5b60028111156113f2576113f1612859565b5b8152602001600382015481526020016004820154815260200160058201548152602001600682015481526020016007820160009054906101000a900460ff1660ff1660ff16815260200160088201548152602001600982015481525050905090565b61145c6120af565b73ffffffffffffffffffffffffffffffffffffffff1661147a6114e6565b73ffffffffffffffffffffffffffffffffffffffff16146114d0576040517f08c379a00000000000000000000000000000000000000000000000000000000081526004016114c790612ada565b60405180910390fd5b6114da60006121a0565b565b6000600854905090565b60008060009054906101000a900473ffffffffffffffffffffffffffffffffffffffff16905090565b600260009054906101000a900473ffffffffffffffffffffffffffffffffffffffff1673ffffffffffffffffffffffffffffffffffffffff163373ffffffffffffffffffffffffffffffffffffffff161461159f576040517f08c379a000000000000000000000000000000000000000000000000000000000815260040161159690612bb2565b60405180910390fd5b600060028111156115b3576115b2612859565b5b600a600083815260200190815260200160002060020160009054906101000a900460ff1660028111156115e9576115e8612859565b5b14611629576040517f08c379a0000000000000000000000000000000000000000000000000000000008152600401611620906133fe565b60405180910390fd5b600a600082815260200190815260200160002060060154421015611682576040517f08c379a00000000000000000000000000000000000000000000000000000000081526004016116799061346a565b60405180910390fd5b6001600a600083815260200190815260200160002060020160006101000a81548160ff021916908360028111156116bc576116bb612859565b5b0217905550600660009054906101000a900473ffffffffffffffffffffffffffffffffffffffff1673ffffffffffffffffffffffffffffffffffffffff1663b37217a4826040518263ffffffff1660e01b815260040161171c91906126b7565b6020604051808303816000875af115801561173b573d6000803e3d6000fd5b505050506040513d601f19601f8201168201806040525081019061175f919061349f565b6007819055507ff8cdf8355a0f31bbad8998a631f5a75dcb3e475a010b34a111ed105fe88e751a816007546040516117989291906134db565b60405180910390a150565b600360009054906101000a900473ffffffffffffffffffffffffffffffffffffffff1681565b6117d161255a565b600a60008381526020019081526020016000206040518061014001604052908160008201548152602001600182015481526020016002820160009054906101000a900460ff16600281111561182957611828612859565b5b600281111561183b5761183a612859565b5b8152602001600382015481526020016004820154815260200160058201548152602001600682015481526020016007820160009054906101000a900460ff1660ff1660ff168152602001600882015481526020016009820154815250509050919050565b600660009054906101000a900473ffffffffffffffffffffffffffffffffffffffff1673ffffffffffffffffffffffffffffffffffffffff163373ffffffffffffffffffffffffffffffffffffffff161461192f576040517f08c379a000000000000000000000000000000000000000000000000000000000815260040161192690613550565b60405180910390fd5b600260015403611974576040517f08c379a000000000000000000000000000000000000000000000000000000000815260040161196b9061309d565b60405180910390fd5b600260018190555042600a60008581526020019081526020016000206006015411156119d5576040517f08c379a00000000000000000000000000000000000000000000000000000000081526004016119cc906135e2565b60405180910390fd5b600160028111156119e9576119e8612859565b5b600a600085815260200190815260200160002060020160009054906101000a900460ff166002811115611a1f57611a1e612859565b5b14611a5f576040517f08c379a0000000000000000000000000000000000000000000000000000000008152600401611a569061364e565b60405180910390fd5b8160075403611fa157600080600080600560009054906101000a900473ffffffffffffffffffffffffffffffffffffffff1673ffffffffffffffffffffffffffffffffffffffff16630fa3f02c8887600a60008c8152602001908152602001600020600901546040518463ffffffff1660e01b8152600401611ae39392919061366e565b600060405180830381865afa158015611b00573d6000803e3d6000fd5b505050506040513d6000823e3d601f19601f82011682018060405250810190611b29919061397c565b93509350935093506000841115611db757600080600086612710600a60008d815260200190815260200160002060080154612710611b679190613a1b565b600954611b749190613a4f565b611b7e9190613ad8565b611b889190613ad8565b90508681611b969190613a4f565b925082600954611ba69190613a1b565b915060005b8551811015611d28576000868281518110611bc957611bc8613b09565b5b60200260200101516060015160ff1683611be39190613a4f565b9050611c50878381518110611bfb57611bfa613b09565b5b60200260200101516000015182600460009054906101000a900473ffffffffffffffffffffffffffffffffffffffff1673ffffffffffffffffffffffffffffffffffffffff166122649092919063ffffffff16565b611c65816009546122ea90919063ffffffff16565b600981905550600560009054906101000a900473ffffffffffffffffffffffffffffffffffffffff1673ffffffffffffffffffffffffffffffffffffffff166322ea80af878481518110611cbc57611cbb613b09565b5b6020026020010151836040518363ffffffff1660e01b8152600401611ce2929190612dc4565b600060405180830381600087803b158015611cfc57600080fd5b505af1158015611d10573d6000803e3d6000fd5b50505050508080611d2090613b38565b915050611bab565b50611d98600360009054906101000a900473ffffffffffffffffffffffffffffffffffffffff1683600460009054906101000a900473ffffffffffffffffffffffffffffffffffffffff1673ffffffffffffffffffffffffffffffffffffffff166122649092919063ffffffff16565b611dad826009546122ea90919063ffffffff16565b6009819055505050505b6002600a600089815260200190815260200160002060020160006101000a81548160ff02191690836002811115611df157611df0612859565b5b021790555082600a600089815260200190815260200160002060070160006101000a81548160ff021916908360ff1602179055506000600560009054906101000a900473ffffffffffffffffffffffffffffffffffffffff1673ffffffffffffffffffffffffffffffffffffffff1663127873f7836040518263ffffffff1660e01b8152600401611e829190613c2f565b600060405180830381865afa158015611e9f573d6000803e3d6000fd5b505050506040513d6000823e3d601f19601f82011682018060405250810190611ec89190613c51565b90507fbc964b0f8db6d378dee42d59eeb5611aac5f716a0680f79e98a0b234ba3704f988600560009054906101000a900473ffffffffffffffffffffffffffffffffffffffff1673ffffffffffffffffffffffffffffffffffffffff1663bc49516b6040518163ffffffff1660e01b8152600401602060405180830381865afa158015611f59573d6000803e3d6000fd5b505050506040513d601f19601f82011682018060405250810190611f7d9190612d97565b8684604051611f8f9493929190613dc0565b60405180910390a15050505050611fa6565b600080fd5b60018081905550505050565b61138881565b611fc06120af565b73ffffffffffffffffffffffffffffffffffffffff16611fde6114e6565b73ffffffffffffffffffffffffffffffffffffffff1614612034576040517f08c379a000000000000000000000000000000000000000000000000000000000815260040161202b90612ada565b60405180910390fd5b600073ffffffffffffffffffffffffffffffffffffffff168173ffffffffffffffffffffffffffffffffffffffff16036120a3576040517f08c379a000000000000000000000000000000000000000000000000000000000815260040161209a90613e7e565b60405180910390fd5b6120ac816121a0565b50565b600033905090565b600081836120c59190613308565b905092915050565b60006120d8306120f4565b15905090565b600081836120ec9190613a4f565b905092915050565b6000808273ffffffffffffffffffffffffffffffffffffffff163b119050919050565b61219a846323b872dd60e01b85858560405160240161213893929190613e9e565b604051602081830303815290604052907bffffffffffffffffffffffffffffffffffffffffffffffffffffffff19166020820180517bffffffffffffffffffffffffffffffffffffffffffffffffffffffff8381831617835250505050612300565b50505050565b60008060009054906101000a900473ffffffffffffffffffffffffffffffffffffffff169050816000806101000a81548173ffffffffffffffffffffffffffffffffffffffff021916908373ffffffffffffffffffffffffffffffffffffffff1602179055508173ffffffffffffffffffffffffffffffffffffffff168173ffffffffffffffffffffffffffffffffffffffff167f8be0079c531659141344cd1fd0a4f28419497f9722a3daafe3b4186f6b6457e060405160405180910390a35050565b6122e58363a9059cbb60e01b8484604051602401612283929190612ded565b604051602081830303815290604052907bffffffffffffffffffffffffffffffffffffffffffffffffffffffff19166020820180517bffffffffffffffffffffffffffffffffffffffffffffffffffffffff8381831617835250505050612300565b505050565b600081836122f89190613a1b565b905092915050565b6000612362826040518060400160405280602081526020017f5361666545524332303a206c6f772d6c6576656c2063616c6c206661696c65648152508573ffffffffffffffffffffffffffffffffffffffff166123c79092919063ffffffff16565b90506000815111156123c257808060200190518101906123829190612e4e565b6123c1576040517f08c379a00000000000000000000000000000000000000000000000000000000081526004016123b890613f47565b60405180910390fd5b5b505050565b60606123d684846000856123df565b90509392505050565b606082471015612424576040517f08c379a000000000000000000000000000000000000000000000000000000000815260040161241b90613fd9565b60405180910390fd5b61242d856120f4565b61246c576040517f08c379a000000000000000000000000000000000000000000000000000000000815260040161246390614045565b60405180910390fd5b6000808673ffffffffffffffffffffffffffffffffffffffff16858760405161249591906140df565b60006040518083038185875af1925050503d80600081146124d2576040519150601f19603f3d011682016040523d82523d6000602084013e6124d7565b606091505b50915091506124e78282866124f3565b92505050949350505050565b6060831561250357829050612553565b6000835111156125165782518084602001fd5b816040517f08c379a000000000000000000000000000000000000000000000000000000000815260040161254a919061413a565b60405180910390fd5b9392505050565b60405180610140016040528060008152602001600081526020016000600281111561258857612587612859565b5b815260200160008152602001600081526020016000815260200160008152602001600060ff16815260200160008152602001600081525090565b6000604051905090565b600080fd5b600080fd5b600073ffffffffffffffffffffffffffffffffffffffff82169050919050565b6000612601826125d6565b9050919050565b612611816125f6565b811461261c57600080fd5b50565b60008135905061262e81612608565b92915050565b6000806040838503121561264b5761264a6125cc565b5b60006126598582860161261f565b925050602061266a8582860161261f565b9150509250929050565b61267d816125f6565b82525050565b60006020820190506126986000830184612674565b92915050565b6000819050919050565b6126b18161269e565b82525050565b60006020820190506126cc60008301846126a8565b92915050565b6126db8161269e565b81146126e657600080fd5b50565b6000813590506126f8816126d2565b92915050565b600080600060608486031215612717576127166125cc565b5b6000612725868287016126e9565b9350506020612736868287016126e9565b9250506040612747868287016126e9565b9150509250925092565b600060208284031215612767576127666125cc565b5b6000612775848285016126e9565b91505092915050565b60008060408385031215612795576127946125cc565b5b60006127a3858286016126e9565b92505060206127b4858286016126e9565b9150509250929050565b600060ff82169050919050565b6127d4816127be565b81146127df57600080fd5b50565b6000813590506127f1816127cb565b92915050565b6000806000606084860312156128105761280f6125cc565b5b600061281e868287016126e9565b935050602061282f868287016127e2565b9250506040612840868287016127e2565b9150509250925092565b6128538161269e565b82525050565b7f4e487b7100000000000000000000000000000000000000000000000000000000600052602160045260246000fd5b6003811061289957612898612859565b5b50565b60008190506128aa82612888565b919050565b60006128ba8261289c565b9050919050565b6128ca816128af565b82525050565b6128d9816127be565b82525050565b610140820160008201516128f6600085018261284a565b506020820151612909602085018261284a565b50604082015161291c60408501826128c1565b50606082015161292f606085018261284a565b506080820151612942608085018261284a565b5060a082015161295560a085018261284a565b5060c082015161296860c085018261284a565b5060e082015161297b60e08501826128d0565b5061010082015161299061010085018261284a565b506101208201516129a561012085018261284a565b50505050565b6000610140820190506129c160008301846128df565b92915050565b6000819050919050565b6129da816129c7565b81146129e557600080fd5b50565b6000813590506129f7816129d1565b92915050565b600080600060608486031215612a1657612a156125cc565b5b6000612a24868287016126e9565b9350506020612a35868287016129e8565b9250506040612a46868287016126e9565b9150509250925092565b600060208284031215612a6657612a656125cc565b5b6000612a748482850161261f565b91505092915050565b600082825260208201905092915050565b7f4f776e61626c653a2063616c6c6572206973206e6f7420746865206f776e6572600082015250565b6000612ac4602083612a7d565b9150612acf82612a8e565b602082019050919050565b60006020820190508181036000830152612af381612ab7565b9050919050565b7f43616e6e6f74206265207a65726f206164647265737300000000000000000000600082015250565b6000612b30601683612a7d565b9150612b3b82612afa565b602082019050919050565b60006020820190508181036000830152612b5f81612b23565b9050919050565b7f4e6f74206f70657261746f720000000000000000000000000000000000000000600082015250565b6000612b9c600c83612a7d565b9150612ba782612b66565b602082019050919050565b60006020820190508181036000830152612bcb81612b8f565b9050919050565b7f5072697a65206f7220636f73742063616e6e6f74206265203000000000000000600082015250565b6000612c08601983612a7d565b9150612c1382612bd2565b602082019050919050565b60006020820190508181036000830152612c3781612bfb565b9050919050565b7f54696d657374616d707320666f72206c6f747465727920696e76616c69640000600082015250565b6000612c74601e83612a7d565b9150612c7f82612c3e565b602082019050919050565b60006020820190508181036000830152612ca381612c67565b9050919050565b7f4e6f742074696d6520746f207374617274206c6f747465727900000000000000600082015250565b6000612ce0601983612a7d565b9150612ceb82612caa565b602082019050919050565b60006020820190508181036000830152612d0f81612cd3565b9050919050565b7f54726561737572792066656520746f6f20686967680000000000000000000000600082015250565b6000612d4c601583612a7d565b9150612d5782612d16565b602082019050919050565b60006020820190508181036000830152612d7b81612d3f565b9050919050565b600081519050612d91816126d2565b92915050565b600060208284031215612dad57612dac6125cc565b5b6000612dbb84828501612d82565b91505092915050565b6000604082019050612dd960008301856126a8565b612de660208301846126a8565b9392505050565b6000604082019050612e026000830185612674565b612e0f60208301846126a8565b9392505050565b60008115159050919050565b612e2b81612e16565b8114612e3657600080fd5b50565b600081519050612e4881612e22565b92915050565b600060208284031215612e6457612e636125cc565b5b6000612e7284828501612e39565b91505092915050565b7f496e697469616c697a61626c653a20636f6e747261637420697320616c72656160008201527f647920696e697469616c697a6564000000000000000000000000000000000000602082015250565b6000612ed7602e83612a7d565b9150612ee282612e7b565b604082019050919050565b60006020820190508181036000830152612f0681612eca565b9050919050565b7f436f6e7472616374732063616e6e6f7420626520302061646472657373000000600082015250565b6000612f43601d83612a7d565b9150612f4e82612f0d565b602082019050919050565b60006020820190508181036000830152612f7281612f36565b9050919050565b7f636f6e7472616374206e6f7420616c6c6f776564000000000000000000000000600082015250565b6000612faf601483612a7d565b9150612fba82612f79565b602082019050919050565b60006020820190508181036000830152612fde81612fa2565b9050919050565b7f70726f787920636f6e7472616374206e6f7420616c6c6f776564000000000000600082015250565b600061301b601a83612a7d565b915061302682612fe5565b602082019050919050565b6000602082019050818103600083015261304a8161300e565b9050919050565b7f5265656e7472616e637947756172643a207265656e7472616e742063616c6c00600082015250565b6000613087601f83612a7d565b915061309282613051565b602082019050919050565b600060208201905081810360008301526130b68161307a565b9050919050565b7f496e76616c69642074696d6520666f72206d696e743a73746172740000000000600082015250565b60006130f3601b83612a7d565b91506130fe826130bd565b602082019050919050565b60006020820190508181036000830152613122816130e6565b9050919050565b7f496e76616c69642074696d6520666f72206d696e743a656e6400000000000000600082015250565b600061315f601983612a7d565b915061316a82613129565b602082019050919050565b6000602082019050818103600083015261318e81613152565b9050919050565b7f4c6f7474657279206e6f7420696e20737461746520666f72206d696e74000000600082015250565b60006131cb601d83612a7d565b91506131d682613195565b602082019050919050565b600060208201905081810360008301526131fa816131be565b9050919050565b7f4261746368206d696e7420746f6f206c61726765000000000000000000000000600082015250565b6000613237601483612a7d565b915061324282613201565b602082019050919050565b600060208201905081810360008301526132668161322a565b9050919050565b7f43686f6f73652074776f2d6469676974206e756d626572000000000000000000600082015250565b60006132a3601783612a7d565b91506132ae8261326d565b602082019050919050565b600060208201905081810360008301526132d281613296565b9050919050565b7f4e487b7100000000000000000000000000000000000000000000000000000000600052601160045260246000fd5b60006133138261269e565b915061331e8361269e565b9250827fffffffffffffffffffffffffffffffffffffffffffffffffffffffffffffffff03821115613353576133526132d9565b5b828201905092915050565b613367816127be565b82525050565b60006080820190506133826000830187612674565b61338f60208301866126a8565b61339c604083018561335e565b6133a9606083018461335e565b95945050505050565b7f4c6f7474657279206e6f74206f70656e00000000000000000000000000000000600082015250565b60006133e8601083612a7d565b91506133f3826133b2565b602082019050919050565b60006020820190508181036000830152613417816133db565b9050919050565b7f4c6f7474657279206e6f74206f76657200000000000000000000000000000000600082015250565b6000613454601083612a7d565b915061345f8261341e565b602082019050919050565b6000602082019050818103600083015261348381613447565b9050919050565b600081519050613499816129d1565b92915050565b6000602082840312156134b5576134b46125cc565b5b60006134c38482850161348a565b91505092915050565b6134d5816129c7565b82525050565b60006040820190506134f060008301856126a8565b6134fd60208301846134cc565b9392505050565b7f4f6e6c792072616e646f6d2067656e657261746f720000000000000000000000600082015250565b600061353a601583612a7d565b915061354582613504565b602082019050919050565b600060208201905081810360008301526135698161352d565b9050919050565b7f43616e6e6f74207365742077696e6e696e67206e756d6265727320647572696e60008201527f67206c6f74746572790000000000000000000000000000000000000000000000602082015250565b60006135cc602983612a7d565b91506135d782613570565b604082019050919050565b600060208201905081810360008301526135fb816135bf565b9050919050565b7f4c6f747465727920537461746520696e636f727265637420666f722064726177600082015250565b6000613638602083612a7d565b915061364382613602565b602082019050919050565b600060208201905081810360008301526136678161362b565b9050919050565b600060608201905061368360008301866126a8565b61369060208301856126a8565b61369d60408301846126a8565b949350505050565b6000815190506136b4816127cb565b92915050565b600080fd5b6000601f19601f8301169050919050565b7f4e487b7100000000000000000000000000000000000000000000000000000000600052604160045260246000fd5b613708826136bf565b810181811067ffffffffffffffff82111715613727576137266136d0565b5b80604052505050565b600061373a6125c2565b905061374682826136ff565b919050565b600067ffffffffffffffff821115613766576137656136d0565b5b602082029050602081019050919050565b600080fd5b600080fd5b60008151905061379081612608565b92915050565b600060a082840312156137ac576137ab61377c565b5b6137b660a0613730565b905060006137c684828501613781565b60008301525060206137da848285016136a5565b60208301525060406137ee84828501612d82565b6040830152506060613802848285016136a5565b606083015250608061381684828501612d82565b60808301525092915050565b60006138356138308461374b565b613730565b90508083825260208201905060a0840283018581111561385857613857613777565b5b835b81811015613881578061386d8882613796565b84526020840193505060a08101905061385a565b5050509392505050565b600082601f8301126138a05761389f6136ba565b5b81516138b0848260208601613822565b91505092915050565b600067ffffffffffffffff8211156138d4576138d36136d0565b5b602082029050602081019050919050565b60006138f86138f3846138b9565b613730565b9050808382526020820190506020840283018581111561391b5761391a613777565b5b835b8181101561394457806139308882612d82565b84526020840193505060208101905061391d565b5050509392505050565b600082601f830112613963576139626136ba565b5b81516139738482602086016138e5565b91505092915050565b60008060008060808587031215613996576139956125cc565b5b60006139a487828801612d82565b94505060206139b5878288016136a5565b935050604085015167ffffffffffffffff8111156139d6576139d56125d1565b5b6139e28782880161388b565b925050606085015167ffffffffffffffff811115613a0357613a026125d1565b5b613a0f8782880161394e565b91505092959194509250565b6000613a268261269e565b9150613a318361269e565b925082821015613a4457613a436132d9565b5b828203905092915050565b6000613a5a8261269e565b9150613a658361269e565b9250817fffffffffffffffffffffffffffffffffffffffffffffffffffffffffffffffff0483118215151615613a9e57613a9d6132d9565b5b828202905092915050565b7f4e487b7100000000000000000000000000000000000000000000000000000000600052601260045260246000fd5b6000613ae38261269e565b9150613aee8361269e565b925082613afe57613afd613aa9565b5b828204905092915050565b7f4e487b7100000000000000000000000000000000000000000000000000000000600052603260045260246000fd5b6000613b438261269e565b91507fffffffffffffffffffffffffffffffffffffffffffffffffffffffffffffffff8203613b7557613b746132d9565b5b600182019050919050565b600081519050919050565b600082825260208201905092915050565b6000819050602082019050919050565b6000613bb8838361284a565b60208301905092915050565b6000602082019050919050565b6000613bdc82613b80565b613be68185613b8b565b9350613bf183613b9c565b8060005b83811015613c22578151613c098882613bac565b9750613c1483613bc4565b925050600181019050613bf5565b5085935050505092915050565b60006020820190508181036000830152613c498184613bd1565b905092915050565b600060208284031215613c6757613c666125cc565b5b600082015167ffffffffffffffff811115613c8557613c846125d1565b5b613c918482850161388b565b91505092915050565b600081519050919050565b600082825260208201905092915050565b6000819050602082019050919050565b613ccf816125f6565b82525050565b60a082016000820151613ceb6000850182613cc6565b506020820151613cfe60208501826128d0565b506040820151613d11604085018261284a565b506060820151613d2460608501826128d0565b506080820151613d37608085018261284a565b50505050565b6000613d498383613cd5565b60a08301905092915050565b6000602082019050919050565b6000613d6d82613c9a565b613d778185613ca5565b9350613d8283613cb6565b8060005b83811015613db3578151613d9a8882613d3d565b9750613da583613d55565b925050600181019050613d86565b5085935050505092915050565b6000608082019050613dd560008301876126a8565b613de260208301866126a8565b613def604083018561335e565b8181036060830152613e018184613d62565b905095945050505050565b7f4f776e61626c653a206e6577206f776e657220697320746865207a65726f206160008201527f6464726573730000000000000000000000000000000000000000000000000000602082015250565b6000613e68602683612a7d565b9150613e7382613e0c565b604082019050919050565b60006020820190508181036000830152613e9781613e5b565b9050919050565b6000606082019050613eb36000830186612674565b613ec06020830185612674565b613ecd60408301846126a8565b949350505050565b7f5361666545524332303a204552433230206f7065726174696f6e20646964206e60008201527f6f74207375636365656400000000000000000000000000000000000000000000602082015250565b6000613f31602a83612a7d565b9150613f3c82613ed5565b604082019050919050565b60006020820190508181036000830152613f6081613f24565b9050919050565b7f416464726573733a20696e73756666696369656e742062616c616e636520666f60008201527f722063616c6c0000000000000000000000000000000000000000000000000000602082015250565b6000613fc3602683612a7d565b9150613fce82613f67565b604082019050919050565b60006020820190508181036000830152613ff281613fb6565b9050919050565b7f416464726573733a2063616c6c20746f206e6f6e2d636f6e7472616374000000600082015250565b600061402f601d83612a7d565b915061403a82613ff9565b602082019050919050565b6000602082019050818103600083015261405e81614022565b9050919050565b600081519050919050565b600081905092915050565b60005b8381101561409957808201518184015260208101905061407e565b838111156140a8576000848401525b50505050565b60006140b982614065565b6140c38185614070565b93506140d381856020860161407b565b80840191505092915050565b60006140eb82846140ae565b915081905092915050565b600081519050919050565b600061410c826140f6565b6141168185612a7d565b935061412681856020860161407b565b61412f816136bf565b840191505092915050565b600060208201905081810360008301526141548184614101565b90509291505056fea26469706673582212203523f610fb6fb38d31d36c40b7a21ab11dfb78568411e2f4d7dc3ec51acb9f3864736f6c634300080e0033",
  "immutableReferences": {},
  "source": "//SPDX-License-Identifier: MIT\r\npragma solidity ^0.8.0;\r\n// Imported OZ helper contracts\r\nimport \"@openzeppelin/contracts/token/ERC20/IERC20.sol\";\r\nimport \"@openzeppelin/contracts/token/ERC20/utils/SafeERC20.sol\";\r\nimport \"@openzeppelin/contracts/utils/Address.sol\";\r\nimport \"@openzeppelin/contracts/proxy/utils/Initializable.sol\";\r\nimport \"@openzeppelin/contracts/security/ReentrancyGuard.sol\";\r\n// Inherited allowing for ownership of contract\r\nimport \"@openzeppelin/contracts/access/Ownable.sol\";\r\n// Allows for intergration with ChainLink VRF\r\nimport \"./IRandomNumberGenerator.sol\";\r\n// Interface for Lottery NFT to mint tokens\r\nimport \"./ITicketNFT.sol\";\r\n// Safe math\r\nimport \"@openzeppelin/contracts/utils/math/SafeMath.sol\";\r\nimport \"./SafeMath8.sol\";\r\nimport \"./ILottery.sol\";\r\n\r\n// TODO rename to Lottery when done\r\ncontract Lottery is ILottery, Ownable, Initializable, ReentrancyGuard {\r\n    // Libraries\r\n    // Safe math\r\n    using SafeMath for uint256;\r\n    using SafeMath8 for uint8;\r\n    // Safe ERC20\r\n    using SafeERC20 for IERC20;\r\n    // Address functionality\r\n    using Address for address;\r\n\r\n    // Constants\r\n    uint256 public constant MAX_NUMBER_TICKETS_PER_BUY = 100;\r\n    uint256 public constant MAX_TREASURY_FEE = 5000; // 50%\r\n\r\n    // State variables\r\n    address public operatorAddress;\r\n    address public treasuryAddress;\r\n    // Instance of USDT token (collateral currency for lotto)\r\n    IERC20 internal usdt_;\r\n    // Storing of the NFT\r\n    ITicketNFT internal nft_;\r\n    // Storing of the randomness generator\r\n    IRandomNumberGenerator internal randomGenerator_;\r\n    // Request ID for random number\r\n    bytes32 internal requestId_;\r\n    // Counter for lottery IDs\r\n    uint256 private currentLotteryId_;\r\n    // The amount of usdt for prize money\r\n    uint256 internal prizePool_;\r\n\r\n    // Represents the status of the lottery\r\n    enum Status {\r\n        Open, // The lottery is open for ticket purchases\r\n        Closed, // The lottery is no longer open for ticket purchases\r\n        Completed // The lottery has been closed and the numbers drawn\r\n    }\r\n    // All the needed info around a lottery\r\n    struct LottoInfo {\r\n        uint256 prizePool;\r\n        uint256 lotteryID; // ID for lotto\r\n        Status lotteryStatus; // Status for lotto\r\n        uint256 amountCollectedInUSDT; // The amount of usdt for prize money\r\n        uint256 costPerTicket; // Cost per ticket in $usdt\r\n        uint256 startingTimestamp; // Block timestamp for start of lotto\r\n        uint256 closingTimestamp; // Block timestamp for end of entries\r\n        uint8 winningNumbers; // The winning numbers\r\n        uint256 treasuryFee; // 500: 5% // 200: 2% // 50: 0.5%\r\n        uint256 firstTicketId; // Ticket Id of the first ticket in this lottery\r\n    }\r\n    // Lottery ID's to info\r\n    mapping(uint256 => LottoInfo) internal allLotteries_;\r\n\r\n    event LotteryOpen(uint256 lotteryId, uint256 ticketSupply);\r\n\r\n    event LotteryClose(\r\n        uint256 lotteryId,\r\n        uint256 ticketSupply,\r\n        uint8 finalNumber,\r\n        ITicketNFT.TicketInfo[] winningTickets\r\n    );\r\n\r\n    event PrizePoolChanged(uint256 currentPrizePool, uint256 currentLotteryId);\r\n\r\n    event RequestNumbers(uint256 lotteryId, bytes32 requestId);\r\n\r\n    //-------------------------------------------------------------------------\r\n    // MODIFIERS\r\n    //-------------------------------------------------------------------------\r\n\r\n    modifier onlyRandomGenerator() {\r\n        require(\r\n            msg.sender == address(randomGenerator_),\r\n            \"Only random generator\"\r\n        );\r\n        _;\r\n    }\r\n\r\n    modifier notContract() {\r\n        require(!address(msg.sender).isContract(), \"contract not allowed\");\r\n        require(msg.sender == tx.origin, \"proxy contract not allowed\");\r\n        _;\r\n    }\r\n\r\n    modifier onlyOperator() {\r\n        require(msg.sender == operatorAddress, \"Not operator\");\r\n        _;\r\n    }\r\n\r\n    //-------------------------------------------------------------------------\r\n    // CONSTRUCTOR\r\n    //-------------------------------------------------------------------------\r\n\r\n    constructor(address _usdt) {\r\n        require(_usdt != address(0), \"Contracts cannot be 0 address\");\r\n        usdt_ = IERC20(_usdt);\r\n    }\r\n\r\n    function initialize(address _TicketNFT, address _IRandomNumberGenerator)\r\n        external\r\n        initializer\r\n        onlyOwner\r\n    {\r\n        require(\r\n            _TicketNFT != address(0) && _IRandomNumberGenerator != address(0),\r\n            \"Contracts cannot be 0 address\"\r\n        );\r\n        nft_ = ITicketNFT(_TicketNFT);\r\n        randomGenerator_ = IRandomNumberGenerator(_IRandomNumberGenerator);\r\n    }\r\n\r\n    //-------------------------------------------------------------------------\r\n    // VIEW FUNCTIONS\r\n    //-------------------------------------------------------------------------\r\n\r\n    function costToBuyTickets(uint256 _lotteryId, uint256 _numberOfTickets)\r\n        public\r\n        view\r\n        returns (uint256 totalCost)\r\n    {\r\n        uint256 pricePer = allLotteries_[_lotteryId].costPerTicket;\r\n        totalCost = pricePer.mul(_numberOfTickets);\r\n    }\r\n\r\n    function getBasicLottoInfo(uint256 _lotteryId)\r\n        external\r\n        view\r\n        returns (LottoInfo memory)\r\n    {\r\n        return allLotteries_[_lotteryId];\r\n    }\r\n\r\n    function getCurrentLottoInfo() external view returns (LottoInfo memory) {\r\n        return allLotteries_[currentLotteryId_];\r\n    }\r\n\r\n    /**\r\n     * @notice View current lottery id\r\n     */\r\n    function viewCurrentLotteryId() external view returns (uint256) {\r\n        return currentLotteryId_;\r\n    }\r\n\r\n    //-------------------------------------------------------------------------\r\n    // STATE MODIFYING FUNCTIONS\r\n    //-------------------------------------------------------------------------\r\n\r\n    /**\r\n     * @param   _closingTimestamp The block timestamp after which no more tickets\r\n     *          will be sold for the lottery. Note that this timestamp MUST\r\n     *          be after the starting block timestamp.\r\n     * @param   _treasuryFee: treasury fee (10,000 = 100%, 100 = 1%)\r\n     * @param   _costPerTicket: price of a ticket in USDT\r\n     */\r\n    function startLottery(\r\n        uint256 _costPerTicket,\r\n        uint256 _closingTimestamp,\r\n        uint256 _treasuryFee\r\n    ) external onlyOperator returns (uint256 lotteryId) {\r\n        require(_costPerTicket != 0, \"Prize or cost cannot be 0\");\r\n        require(\r\n            block.timestamp < _closingTimestamp,\r\n            \"Timestamps for lottery invalid\"\r\n        );\r\n        require(\r\n            (currentLotteryId_ == 0) ||\r\n                (allLotteries_[currentLotteryId_].lotteryStatus ==\r\n                    Status.Completed),\r\n            \"Not time to start lottery\"\r\n        );\r\n        require(_treasuryFee <= MAX_TREASURY_FEE, \"Treasury fee too high\");\r\n\r\n        // Incrementing lottery ID\r\n        currentLotteryId_ = currentLotteryId_.add(1);\r\n        lotteryId = currentLotteryId_;\r\n        // Saving data in struct\r\n        LottoInfo memory newLottery = LottoInfo({\r\n            prizePool: prizePool_,\r\n            lotteryID: lotteryId,\r\n            lotteryStatus: Status.Open,\r\n            amountCollectedInUSDT: 0,\r\n            costPerTicket: _costPerTicket,\r\n            startingTimestamp: block.timestamp,\r\n            closingTimestamp: _closingTimestamp,\r\n            winningNumbers: 111, // 111 means haven't draw numbers\r\n            treasuryFee: _treasuryFee,\r\n            firstTicketId: nft_.getCurrentTicketId().add(1)\r\n        });\r\n        allLotteries_[lotteryId] = newLottery;\r\n\r\n        // Emitting important information around new lottery.\r\n        emit LotteryOpen(lotteryId, nft_.getCurrentTicketId());\r\n    }\r\n\r\n    function withdrawUSDT(uint256 _amount) external onlyOwner {\r\n        usdt_.transfer(msg.sender, _amount);\r\n    }\r\n\r\n    //-------------------------------------------------------------------------\r\n    // General Access Functions\r\n\r\n    function buyTickets(\r\n        uint256 _lotteryId,\r\n        uint8 _numberOfTickets,\r\n        uint8 _chosenNumbersForEachTicket\r\n    ) external notContract nonReentrant {\r\n        // Ensuring the lottery is within a valid time\r\n        require(\r\n            getCurrentTime() >= allLotteries_[_lotteryId].startingTimestamp,\r\n            \"Invalid time for mint:start\"\r\n        );\r\n        require(\r\n            getCurrentTime() < allLotteries_[_lotteryId].closingTimestamp,\r\n            \"Invalid time for mint:end\"\r\n        );\r\n        if (allLotteries_[_lotteryId].lotteryStatus == Status.Completed) {\r\n            if (\r\n                allLotteries_[_lotteryId].startingTimestamp >= getCurrentTime()\r\n            ) {\r\n                allLotteries_[_lotteryId].lotteryStatus = Status.Open;\r\n            }\r\n        }\r\n        require(\r\n            allLotteries_[_lotteryId].lotteryStatus == Status.Open,\r\n            \"Lottery not in state for mint\"\r\n        );\r\n        require(\r\n            _numberOfTickets <= MAX_NUMBER_TICKETS_PER_BUY,\r\n            \"Batch mint too large\"\r\n        );\r\n        require(\r\n            _chosenNumbersForEachTicket <= 99 &&\r\n                _chosenNumbersForEachTicket >= 0,\r\n            \"Choose two-digit number\"\r\n        );\r\n        // Getting the cost for the token purchase\r\n        uint256 totalCost = costToBuyTickets(_lotteryId, _numberOfTickets);\r\n        // Transfers the required cake to this contract\r\n        usdt_.safeTransferFrom(msg.sender, address(this), totalCost);\r\n        prizePool_ = prizePool_.add(totalCost);\r\n\r\n        // Increment the total amount collected for the lottery round\r\n        allLotteries_[_lotteryId].amountCollectedInUSDT += totalCost;\r\n        allLotteries_[_lotteryId].prizePool = prizePool_;\r\n        // Batch mints the user their tickets\r\n        nft_.Mint(\r\n            msg.sender,\r\n            _lotteryId,\r\n            _numberOfTickets,\r\n            _chosenNumbersForEachTicket\r\n        );\r\n\r\n        emit PrizePoolChanged(prizePool_, currentLotteryId_);\r\n    }\r\n\r\n    /**\r\n     * @notice Close lottery\r\n     * @param _lotteryId: lottery id\r\n     * @dev Callable by operator\r\n     */\r\n    function closeLottery(uint256 _lotteryId) external onlyOperator {\r\n        require(\r\n            allLotteries_[_lotteryId].lotteryStatus == Status.Open,\r\n            \"Lottery not open\"\r\n        );\r\n        require(\r\n            block.timestamp >= allLotteries_[_lotteryId].closingTimestamp,\r\n            \"Lottery not over\"\r\n        );\r\n\r\n        allLotteries_[_lotteryId].lotteryStatus = Status.Closed;\r\n\r\n        // Request a random number from the generator\r\n        requestId_ = randomGenerator_.getRandomNumber(_lotteryId);\r\n\r\n        emit RequestNumbers(_lotteryId, requestId_);\r\n    }\r\n\r\n    function numbersDrawn(\r\n        uint256 _lotteryId,\r\n        bytes32 _requestId,\r\n        uint256 _randomNumber\r\n    ) external onlyRandomGenerator nonReentrant {\r\n        // Checks that the lottery is past the closing block\r\n        require(\r\n            allLotteries_[_lotteryId].closingTimestamp <= block.timestamp,\r\n            \"Cannot set winning numbers during lottery\"\r\n        );\r\n        // Checks lottery numbers have not already been drawn\r\n        require(\r\n            allLotteries_[_lotteryId].lotteryStatus == Status.Closed,\r\n            \"Lottery State incorrect for draw\"\r\n        );\r\n\r\n        if (requestId_ == _requestId) {\r\n            // ... Transfer prize here\r\n            (\r\n                uint256 totalWinningTickets,\r\n                uint8 finalNumber,\r\n                ITicketNFT.TicketInfo[] memory winningTickets,\r\n                uint256[] memory winningTicketIds\r\n            ) = nft_.getWinningTickets(\r\n                    _lotteryId,\r\n                    _randomNumber,\r\n                    allLotteries_[_lotteryId].firstTicketId\r\n                );\r\n            if (totalWinningTickets > 0) {\r\n                // Calculate the amount to share post-treasury fee\r\n                uint256 amountToShareToWinners = 0;\r\n                // Initializes the amount to withdraw to treasury\r\n                uint256 amountToWithdrawToTreasury = 0;\r\n                uint256 winAmountPerTicket = 0;\r\n                winAmountPerTicket =\r\n                    (prizePool_ *\r\n                        (10000 - allLotteries_[_lotteryId].treasuryFee)) /\r\n                    10000 /\r\n                    totalWinningTickets;\r\n                amountToShareToWinners =\r\n                    winAmountPerTicket *\r\n                    totalWinningTickets;\r\n                amountToWithdrawToTreasury =\r\n                    prizePool_ -\r\n                    amountToShareToWinners;\r\n\r\n                // Transfer prize to winners\r\n                for (uint256 i = 0; i < winningTickets.length; i++) {\r\n                    uint256 amountToTransferToThisWinner = winAmountPerTicket *\r\n                        winningTickets[i].numberOfTickets;\r\n                    usdt_.safeTransfer(\r\n                        winningTickets[i].owner,\r\n                        amountToTransferToThisWinner\r\n                    );\r\n                    prizePool_ = prizePool_.sub(amountToTransferToThisWinner);\r\n\r\n                    //Save ticket win amount\r\n                    nft_.setTicketWinAmount(\r\n                        winningTicketIds[i],\r\n                        amountToTransferToThisWinner\r\n                    );\r\n                }\r\n\r\n                // Transfer fee to treasury address\r\n                usdt_.safeTransfer(treasuryAddress, amountToWithdrawToTreasury);\r\n                prizePool_ = prizePool_.sub(amountToWithdrawToTreasury);\r\n            }\r\n\r\n            // Set lottery status completed\r\n            allLotteries_[_lotteryId].lotteryStatus = Status.Completed;\r\n            allLotteries_[_lotteryId].winningNumbers = finalNumber;\r\n\r\n            ITicketNFT.TicketInfo[] memory winTicketsInfo = nft_.getTickets(\r\n                winningTicketIds\r\n            );\r\n            emit LotteryClose(\r\n                _lotteryId,\r\n                nft_.getCurrentTicketId(),\r\n                finalNumber,\r\n                winTicketsInfo\r\n            );\r\n        } else revert();\r\n    }\r\n\r\n    /**\r\n     * @notice Set operator, treasury, and injector addresses\r\n     * @dev Only callable by owner\r\n     * @param _operatorAddress: address of the operator\r\n     */\r\n    function setOperatorAndTreasuryAddresses(\r\n        address _operatorAddress,\r\n        address _treasuryAddress\r\n    ) external onlyOwner {\r\n        require(_operatorAddress != address(0), \"Cannot be zero address\");\r\n        require(_treasuryAddress != address(0), \"Cannot be zero address\");\r\n\r\n        operatorAddress = _operatorAddress;\r\n        treasuryAddress = _treasuryAddress;\r\n    }\r\n\r\n    //-------------------------------------------------------------------------\r\n    // INTERNAL FUNCTIONS\r\n    //-------------------------------------------------------------------------\r\n\r\n    function getCurrentTime() public view returns (uint256) {\r\n        return block.timestamp;\r\n    }\r\n}\r\n",
  "sourcePath": "D:\\CapstoneProject\\contract-xosoblockchain\\contracts\\Lottery.sol",
  "compiler": {
    "name": "solc",
    "version": "0.8.14+commit.80d49f37.Emscripten.clang"
  },
  "schemaVersion": "3.4.6",
  "updatedAt": "2022-05-27T08:06:25.272Z",
  "networkType": "ethereum",
  "devdoc": {
    "kind": "dev",
    "methods": {
      "closeLottery(uint256)": {
        "details": "Callable by operator",
        "params": {
          "_lotteryId": ": lottery id"
        }
      },
      "owner()": {
        "details": "Returns the address of the current owner."
      },
      "renounceOwnership()": {
        "details": "Leaves the contract without owner. It will not be possible to call `onlyOwner` functions anymore. Can only be called by the current owner. NOTE: Renouncing ownership will leave the contract without an owner, thereby removing any functionality that is only available to the owner."
      },
      "setOperatorAndTreasuryAddresses(address,address)": {
        "details": "Only callable by owner",
        "params": {
          "_operatorAddress": ": address of the operator"
        }
      },
      "startLottery(uint256,uint256,uint256)": {
        "params": {
          "_closingTimestamp": "The block timestamp after which no more tickets          will be sold for the lottery. Note that this timestamp MUST          be after the starting block timestamp.",
          "_costPerTicket": ": price of a ticket in USDT",
          "_treasuryFee": ": treasury fee (10,000 = 100%, 100 = 1%)"
        }
      },
      "transferOwnership(address)": {
        "details": "Transfers ownership of the contract to a new account (`newOwner`). Can only be called by the current owner."
      }
    },
    "version": 1
  },
  "userdoc": {
    "kind": "user",
    "methods": {
      "closeLottery(uint256)": {
        "notice": "Close lottery"
      },
      "setOperatorAndTreasuryAddresses(address,address)": {
        "notice": "Set operator, treasury, and injector addresses"
      },
      "viewCurrentLotteryId()": {
        "notice": "View current lottery id"
      }
    },
    "version": 1
  }
}