{
  "contractName": "TicketNFT",
  "abi": [
    {
      "inputs": [
        {
          "internalType": "string",
          "name": "_uri",
          "type": "string"
        },
        {
          "internalType": "address",
          "name": "_lotto",
          "type": "address"
        }
      ],
      "stateMutability": "nonpayable",
      "type": "constructor"
    },
    {
      "anonymous": false,
      "inputs": [
        {
          "indexed": true,
          "internalType": "address",
          "name": "account",
          "type": "address"
        },
        {
          "indexed": true,
          "internalType": "address",
          "name": "operator",
          "type": "address"
        },
        {
          "indexed": false,
          "internalType": "bool",
          "name": "approved",
          "type": "bool"
        }
      ],
      "name": "ApprovalForAll",
      "type": "event"
    },
    {
      "anonymous": false,
      "inputs": [
        {
          "indexed": true,
          "internalType": "address",
          "name": "operator",
          "type": "address"
        },
        {
          "indexed": true,
          "internalType": "address",
          "name": "from",
          "type": "address"
        },
        {
          "indexed": true,
          "internalType": "address",
          "name": "to",
          "type": "address"
        },
        {
          "indexed": false,
          "internalType": "uint256[]",
          "name": "ids",
          "type": "uint256[]"
        },
        {
          "indexed": false,
          "internalType": "uint256[]",
          "name": "values",
          "type": "uint256[]"
        }
      ],
      "name": "TransferBatch",
      "type": "event"
    },
    {
      "anonymous": false,
      "inputs": [
        {
          "indexed": true,
          "internalType": "address",
          "name": "operator",
          "type": "address"
        },
        {
          "indexed": true,
          "internalType": "address",
          "name": "from",
          "type": "address"
        },
        {
          "indexed": true,
          "internalType": "address",
          "name": "to",
          "type": "address"
        },
        {
          "indexed": false,
          "internalType": "uint256",
          "name": "id",
          "type": "uint256"
        },
        {
          "indexed": false,
          "internalType": "uint256",
          "name": "value",
          "type": "uint256"
        }
      ],
      "name": "TransferSingle",
      "type": "event"
    },
    {
      "anonymous": false,
      "inputs": [
        {
          "indexed": false,
          "internalType": "string",
          "name": "value",
          "type": "string"
        },
        {
          "indexed": true,
          "internalType": "uint256",
          "name": "id",
          "type": "uint256"
        }
      ],
      "name": "URI",
      "type": "event"
    },
    {
      "inputs": [
        {
          "internalType": "address",
          "name": "account",
          "type": "address"
        },
        {
          "internalType": "uint256",
          "name": "id",
          "type": "uint256"
        }
      ],
      "name": "balanceOf",
      "outputs": [
        {
          "internalType": "uint256",
          "name": "",
          "type": "uint256"
        }
      ],
      "stateMutability": "view",
      "type": "function",
      "constant": true
    },
    {
      "inputs": [
        {
          "internalType": "address[]",
          "name": "accounts",
          "type": "address[]"
        },
        {
          "internalType": "uint256[]",
          "name": "ids",
          "type": "uint256[]"
        }
      ],
      "name": "balanceOfBatch",
      "outputs": [
        {
          "internalType": "uint256[]",
          "name": "",
          "type": "uint256[]"
        }
      ],
      "stateMutability": "view",
      "type": "function",
      "constant": true
    },
    {
      "inputs": [
        {
          "internalType": "address",
          "name": "account",
          "type": "address"
        },
        {
          "internalType": "address",
          "name": "operator",
          "type": "address"
        }
      ],
      "name": "isApprovedForAll",
      "outputs": [
        {
          "internalType": "bool",
          "name": "",
          "type": "bool"
        }
      ],
      "stateMutability": "view",
      "type": "function",
      "constant": true
    },
    {
      "inputs": [
        {
          "internalType": "address",
          "name": "from",
          "type": "address"
        },
        {
          "internalType": "address",
          "name": "to",
          "type": "address"
        },
        {
          "internalType": "uint256[]",
          "name": "ids",
          "type": "uint256[]"
        },
        {
          "internalType": "uint256[]",
          "name": "amounts",
          "type": "uint256[]"
        },
        {
          "internalType": "bytes",
          "name": "data",
          "type": "bytes"
        }
      ],
      "name": "safeBatchTransferFrom",
      "outputs": [],
      "stateMutability": "nonpayable",
      "type": "function"
    },
    {
      "inputs": [
        {
          "internalType": "address",
          "name": "from",
          "type": "address"
        },
        {
          "internalType": "address",
          "name": "to",
          "type": "address"
        },
        {
          "internalType": "uint256",
          "name": "id",
          "type": "uint256"
        },
        {
          "internalType": "uint256",
          "name": "amount",
          "type": "uint256"
        },
        {
          "internalType": "bytes",
          "name": "data",
          "type": "bytes"
        }
      ],
      "name": "safeTransferFrom",
      "outputs": [],
      "stateMutability": "nonpayable",
      "type": "function"
    },
    {
      "inputs": [
        {
          "internalType": "address",
          "name": "operator",
          "type": "address"
        },
        {
          "internalType": "bool",
          "name": "approved",
          "type": "bool"
        }
      ],
      "name": "setApprovalForAll",
      "outputs": [],
      "stateMutability": "nonpayable",
      "type": "function"
    },
    {
      "inputs": [
        {
          "internalType": "bytes4",
          "name": "interfaceId",
          "type": "bytes4"
        }
      ],
      "name": "supportsInterface",
      "outputs": [
        {
          "internalType": "bool",
          "name": "",
          "type": "bool"
        }
      ],
      "stateMutability": "view",
      "type": "function",
      "constant": true
    },
    {
      "inputs": [
        {
          "internalType": "uint256",
          "name": "",
          "type": "uint256"
        }
      ],
      "name": "uri",
      "outputs": [
        {
          "internalType": "string",
          "name": "",
          "type": "string"
        }
      ],
      "stateMutability": "view",
      "type": "function",
      "constant": true
    },
    {
      "inputs": [],
      "name": "getCurrentTicketId",
      "outputs": [
        {
          "internalType": "uint256",
          "name": "",
          "type": "uint256"
        }
      ],
      "stateMutability": "view",
      "type": "function",
      "constant": true
    },
    {
      "inputs": [
        {
          "internalType": "uint256",
          "name": "_ticketID",
          "type": "uint256"
        }
      ],
      "name": "getTicketNumbers",
      "outputs": [
        {
          "internalType": "uint8",
          "name": "",
          "type": "uint8"
        }
      ],
      "stateMutability": "view",
      "type": "function",
      "constant": true
    },
    {
      "inputs": [
        {
          "internalType": "uint256",
          "name": "_ticketID",
          "type": "uint256"
        }
      ],
      "name": "getOwnerOfTicket",
      "outputs": [
        {
          "internalType": "address",
          "name": "",
          "type": "address"
        }
      ],
      "stateMutability": "view",
      "type": "function",
      "constant": true
    },
    {
      "inputs": [
        {
          "internalType": "uint256",
          "name": "_lotteryId",
          "type": "uint256"
        },
        {
          "internalType": "address",
          "name": "_user",
          "type": "address"
        }
      ],
      "name": "getUserTicketIds",
      "outputs": [
        {
          "internalType": "uint256[]",
          "name": "",
          "type": "uint256[]"
        }
      ],
      "stateMutability": "view",
      "type": "function",
      "constant": true
    },
    {
      "inputs": [
        {
          "internalType": "uint256",
          "name": "_lotteryId",
          "type": "uint256"
        },
        {
          "internalType": "address",
          "name": "_user",
          "type": "address"
        }
      ],
      "name": "getUserTickets",
      "outputs": [
        {
          "components": [
            {
              "internalType": "address",
              "name": "owner",
              "type": "address"
            },
            {
              "internalType": "uint8",
              "name": "numbers",
              "type": "uint8"
            },
            {
              "internalType": "uint256",
              "name": "lotteryId",
              "type": "uint256"
            },
            {
              "internalType": "uint8",
              "name": "numberOfTickets",
              "type": "uint8"
            },
            {
              "internalType": "uint256",
              "name": "winAmount",
              "type": "uint256"
            }
          ],
          "internalType": "struct ITicketNFT.TicketInfo[]",
          "name": "",
          "type": "tuple[]"
        }
      ],
      "stateMutability": "view",
      "type": "function",
      "constant": true
    },
    {
      "inputs": [
        {
          "internalType": "address",
          "name": "_user",
          "type": "address"
        }
      ],
      "name": "getUserTicketsAllRound",
      "outputs": [
        {
          "components": [
            {
              "internalType": "address",
              "name": "owner",
              "type": "address"
            },
            {
              "internalType": "uint8",
              "name": "numbers",
              "type": "uint8"
            },
            {
              "internalType": "uint256",
              "name": "lotteryId",
              "type": "uint256"
            },
            {
              "internalType": "uint8",
              "name": "numberOfTickets",
              "type": "uint8"
            },
            {
              "internalType": "uint256",
              "name": "winAmount",
              "type": "uint256"
            }
          ],
          "internalType": "struct ITicketNFT.TicketInfo[][]",
          "name": "",
          "type": "tuple[][]"
        }
      ],
      "stateMutability": "view",
      "type": "function",
      "constant": true
    },
    {
      "inputs": [
        {
          "internalType": "uint256",
          "name": "_ticketID",
          "type": "uint256"
        }
      ],
      "name": "getTicketInfo",
      "outputs": [
        {
          "components": [
            {
              "internalType": "address",
              "name": "owner",
              "type": "address"
            },
            {
              "internalType": "uint8",
              "name": "numbers",
              "type": "uint8"
            },
            {
              "internalType": "uint256",
              "name": "lotteryId",
              "type": "uint256"
            },
            {
              "internalType": "uint8",
              "name": "numberOfTickets",
              "type": "uint8"
            },
            {
              "internalType": "uint256",
              "name": "winAmount",
              "type": "uint256"
            }
          ],
          "internalType": "struct ITicketNFT.TicketInfo",
          "name": "",
          "type": "tuple"
        }
      ],
      "stateMutability": "view",
      "type": "function",
      "constant": true
    },
    {
      "inputs": [
        {
          "internalType": "uint256[]",
          "name": "ticketIds",
          "type": "uint256[]"
        }
      ],
      "name": "getTickets",
      "outputs": [
        {
          "components": [
            {
              "internalType": "address",
              "name": "owner",
              "type": "address"
            },
            {
              "internalType": "uint8",
              "name": "numbers",
              "type": "uint8"
            },
            {
              "internalType": "uint256",
              "name": "lotteryId",
              "type": "uint256"
            },
            {
              "internalType": "uint8",
              "name": "numberOfTickets",
              "type": "uint8"
            },
            {
              "internalType": "uint256",
              "name": "winAmount",
              "type": "uint256"
            }
          ],
          "internalType": "struct ITicketNFT.TicketInfo[]",
          "name": "",
          "type": "tuple[]"
        }
      ],
      "stateMutability": "view",
      "type": "function",
      "constant": true
    },
    {
      "inputs": [
        {
          "internalType": "uint256",
          "name": "_lotteryId",
          "type": "uint256"
        },
        {
          "internalType": "uint256",
          "name": "_randomNumber",
          "type": "uint256"
        },
        {
          "internalType": "uint256",
          "name": "_firstTicketId",
          "type": "uint256"
        }
      ],
      "name": "getWinningTickets",
      "outputs": [
        {
          "internalType": "uint256",
          "name": "",
          "type": "uint256"
        },
        {
          "internalType": "uint8",
          "name": "",
          "type": "uint8"
        },
        {
          "components": [
            {
              "internalType": "address",
              "name": "owner",
              "type": "address"
            },
            {
              "internalType": "uint8",
              "name": "numbers",
              "type": "uint8"
            },
            {
              "internalType": "uint256",
              "name": "lotteryId",
              "type": "uint256"
            },
            {
              "internalType": "uint8",
              "name": "numberOfTickets",
              "type": "uint8"
            },
            {
              "internalType": "uint256",
              "name": "winAmount",
              "type": "uint256"
            }
          ],
          "internalType": "struct ITicketNFT.TicketInfo[]",
          "name": "",
          "type": "tuple[]"
        },
        {
          "internalType": "uint256[]",
          "name": "",
          "type": "uint256[]"
        }
      ],
      "stateMutability": "view",
      "type": "function",
      "constant": true
    },
    {
      "inputs": [
        {
          "internalType": "address",
          "name": "_to",
          "type": "address"
        },
        {
          "internalType": "uint256",
          "name": "_lotteryId",
          "type": "uint256"
        },
        {
          "internalType": "uint8",
          "name": "_numberOfTickets",
          "type": "uint8"
        },
        {
          "internalType": "uint8",
          "name": "_numbers",
          "type": "uint8"
        }
      ],
      "name": "Mint",
      "outputs": [
        {
          "internalType": "uint256",
          "name": "",
          "type": "uint256"
        }
      ],
      "stateMutability": "nonpayable",
      "type": "function"
    },
    {
      "inputs": [
        {
          "internalType": "uint256",
          "name": "ticketId",
          "type": "uint256"
        },
        {
          "internalType": "uint256",
          "name": "amount",
          "type": "uint256"
        }
      ],
      "name": "setTicketWinAmount",
      "outputs": [],
      "stateMutability": "nonpayable",
      "type": "function"
    }
  ],
  "bytecode": "0x60806040523480156200001157600080fd5b506040516200439938038062004399833981810160405281019062000037919062000361565b8162000049816200009360201b60201c565b5080600360006101000a81548173ffffffffffffffffffffffffffffffffffffffff021916908373ffffffffffffffffffffffffffffffffffffffff16021790555050506200042b565b8060029080519060200190620000ab929190620000af565b5050565b828054620000bd90620003f6565b90600052602060002090601f016020900481019282620000e157600085556200012d565b82601f10620000fc57805160ff19168380011785556200012d565b828001600101855582156200012d579182015b828111156200012c5782518255916020019190600101906200010f565b5b5090506200013c919062000140565b5090565b5b808211156200015b57600081600090555060010162000141565b5090565b6000604051905090565b600080fd5b600080fd5b600080fd5b600080fd5b6000601f19601f8301169050919050565b7f4e487b7100000000000000000000000000000000000000000000000000000000600052604160045260246000fd5b620001c8826200017d565b810181811067ffffffffffffffff82111715620001ea57620001e96200018e565b5b80604052505050565b6000620001ff6200015f565b90506200020d8282620001bd565b919050565b600067ffffffffffffffff82111562000230576200022f6200018e565b5b6200023b826200017d565b9050602081019050919050565b60005b83811015620002685780820151818401526020810190506200024b565b8381111562000278576000848401525b50505050565b6000620002956200028f8462000212565b620001f3565b905082815260208101848484011115620002b457620002b362000178565b5b620002c184828562000248565b509392505050565b600082601f830112620002e157620002e062000173565b5b8151620002f38482602086016200027e565b91505092915050565b600073ffffffffffffffffffffffffffffffffffffffff82169050919050565b60006200032982620002fc565b9050919050565b6200033b816200031c565b81146200034757600080fd5b50565b6000815190506200035b8162000330565b92915050565b600080604083850312156200037b576200037a62000169565b5b600083015167ffffffffffffffff8111156200039c576200039b6200016e565b5b620003aa85828601620002c9565b9250506020620003bd858286016200034a565b9150509250929050565b7f4e487b7100000000000000000000000000000000000000000000000000000000600052602260045260246000fd5b600060028204905060018216806200040f57607f821691505b602082108103620004255762000424620003c7565b5b50919050565b613f5e806200043b6000396000f3fe608060405234801561001057600080fd5b50600436106101205760003560e01c8063867f5168116100ad578063bc49516b11610071578063bc49516b1461038c578063e7a7f65c146103aa578063e985e9c5146103da578063f242432a1461040a578063ff99a0631461042657610120565b8063867f5168146102b05780639839eafd146102e057806399b9fd8e146103105780639d75536714610340578063a22cb4651461037057610120565b8063127873f7116100f4578063127873f7146101e857806322ea80af146102185780632eb2c2d6146102345780634e1273f4146102505780635dd703e91461028057610120565b8062fdd58e1461012557806301ffc9a7146101555780630e89341c146101855780630fa3f02c146101b5575b600080fd5b61013f600480360381019061013a91906125d8565b610456565b60405161014c9190612627565b60405180910390f35b61016f600480360381019061016a919061269a565b61051e565b60405161017c91906126e2565b60405180910390f35b61019f600480360381019061019a91906126fd565b610600565b6040516101ac91906127c3565b60405180910390f35b6101cf60048036038101906101ca91906127e5565b610694565b6040516101df9493929190612a47565b60405180910390f35b61020260048036038101906101fd9190612be2565b610a49565b60405161020f9190612c2b565b60405180910390f35b610232600480360381019061022d9190612c4d565b610bc7565b005b61024e60048036038101906102499190612d42565b610c76565b005b61026a60048036038101906102659190612ed4565b610d17565b6040516102779190612f4c565b60405180910390f35b61029a60048036038101906102959190612f6e565b610e30565b6040516102a79190612f4c565b60405180910390f35b6102ca60048036038101906102c59190612fda565b610ed9565b6040516102d79190612627565b60405180910390f35b6102fa60048036038101906102f591906126fd565b611160565b6040516103079190613041565b60405180910390f35b61032a6004803603810190610325919061305c565b61118d565b60405161033791906131ba565b60405180910390f35b61035a600480360381019061035591906126fd565b6112d6565b60405161036791906131eb565b60405180910390f35b61038a60048036038101906103859190613232565b611316565b005b61039461132c565b6040516103a19190612627565b60405180910390f35b6103c460048036038101906103bf9190612f6e565b611336565b6040516103d19190612c2b565b60405180910390f35b6103f460048036038101906103ef9190613272565b611559565b60405161040191906126e2565b60405180910390f35b610424600480360381019061041f91906132b2565b6115ed565b005b610440600480360381019061043b91906126fd565b61168e565b60405161044d91906133b1565b60405180910390f35b60008073ffffffffffffffffffffffffffffffffffffffff168373ffffffffffffffffffffffffffffffffffffffff16036104c6576040517f08c379a00000000000000000000000000000000000000000000000000000000081526004016104bd9061343e565b60405180910390fd5b60008083815260200190815260200160002060008473ffffffffffffffffffffffffffffffffffffffff1673ffffffffffffffffffffffffffffffffffffffff16815260200190815260200160002054905092915050565b60007fd9b67a26000000000000000000000000000000000000000000000000000000007bffffffffffffffffffffffffffffffffffffffffffffffffffffffff1916827bffffffffffffffffffffffffffffffffffffffffffffffffffffffff191614806105e957507f0e89341c000000000000000000000000000000000000000000000000000000007bffffffffffffffffffffffffffffffffffffffffffffffffffffffff1916827bffffffffffffffffffffffffffffffffffffffffffffffffffffffff1916145b806105f957506105f88261175f565b5b9050919050565b60606002805461060f9061348d565b80601f016020809104026020016040519081016040528092919081815260200182805461063b9061348d565b80156106885780601f1061065d57610100808354040283529160200191610688565b820191906000526020600020905b81548152906001019060200180831161066b57829003601f168201915b50505050509050919050565b600080606080600360009054906101000a900473ffffffffffffffffffffffffffffffffffffffff1673ffffffffffffffffffffffffffffffffffffffff163373ffffffffffffffffffffffffffffffffffffffff161461072a576040517f08c379a00000000000000000000000000000000000000000000000000000000081526004016107219061350a565b60405180910390fd5b60006107406064886117c990919063ffffffff16565b905060008060008890505b60045481116107c8578360ff166005600083815260200190815260200160002060000160149054906101000a900460ff1660ff161480156107a157508a6005600083815260200190815260200160002060010154145b156107b55781806107b190613559565b9250505b80806107c090613559565b91505061074b565b5060008167ffffffffffffffff8111156107e5576107e4612a9f565b5b60405190808252806020026020018201604052801561081e57816020015b61080b6124e5565b8152602001906001900390816108035790505b50905060008267ffffffffffffffff81111561083d5761083c612a9f565b5b60405190808252806020026020018201604052801561086b5781602001602082028036833780820191505090505b5090506000808b90505b6004548111610a2d578660ff166005600083815260200190815260200160002060000160149054906101000a900460ff1660ff161480156108cb57508d6005600083815260200190815260200160002060010154145b15610a1a576109096005600083815260200190815260200160002060020160009054906101000a900460ff1660ff16876117df90919063ffffffff16565b9550600560008281526020019081526020016000206040518060a00160405290816000820160009054906101000a900473ffffffffffffffffffffffffffffffffffffffff1673ffffffffffffffffffffffffffffffffffffffff1673ffffffffffffffffffffffffffffffffffffffff1681526020016000820160149054906101000a900460ff1660ff1660ff168152602001600182015481526020016002820160009054906101000a900460ff1660ff1660ff1681526020016003820154815250508483815181106109e0576109df6135a1565b5b6020026020010181905250808383815181106109ff576109fe6135a1565b5b6020026020010181815250508180610a1690613559565b9250505b8080610a2590613559565b915050610875565b5084868484995099509950995050505050505093509350935093565b60606000825167ffffffffffffffff811115610a6857610a67612a9f565b5b604051908082528060200260200182016040528015610aa157816020015b610a8e6124e5565b815260200190600190039081610a865790505b50905060005b8351811015610bbd5760056000858381518110610ac757610ac66135a1565b5b602002602001015181526020019081526020016000206040518060a00160405290816000820160009054906101000a900473ffffffffffffffffffffffffffffffffffffffff1673ffffffffffffffffffffffffffffffffffffffff1673ffffffffffffffffffffffffffffffffffffffff1681526020016000820160149054906101000a900460ff1660ff1660ff168152602001600182015481526020016002820160009054906101000a900460ff1660ff1660ff168152602001600382015481525050828281518110610b9f57610b9e6135a1565b5b60200260200101819052508080610bb590613559565b915050610aa7565b5080915050919050565b600360009054906101000a900473ffffffffffffffffffffffffffffffffffffffff1673ffffffffffffffffffffffffffffffffffffffff163373ffffffffffffffffffffffffffffffffffffffff1614610c57576040517f08c379a0000000000000000000000000000000000000000000000000000000008152600401610c4e9061350a565b60405180910390fd5b8060056000848152602001908152602001600020600301819055505050565b610c7e6117f5565b73ffffffffffffffffffffffffffffffffffffffff168573ffffffffffffffffffffffffffffffffffffffff161480610cc45750610cc385610cbe6117f5565b611559565b5b610d03576040517f08c379a0000000000000000000000000000000000000000000000000000000008152600401610cfa90613642565b60405180910390fd5b610d1085858585856117fd565b5050505050565b60608151835114610d5d576040517f08c379a0000000000000000000000000000000000000000000000000000000008152600401610d54906136d4565b60405180910390fd5b6000835167ffffffffffffffff811115610d7a57610d79612a9f565b5b604051908082528060200260200182016040528015610da85781602001602082028036833780820191505090505b50905060005b8451811015610e2557610df5858281518110610dcd57610dcc6135a1565b5b6020026020010151858381518110610de857610de76135a1565b5b6020026020010151610456565b828281518110610e0857610e076135a1565b5b60200260200101818152505080610e1e90613559565b9050610dae565b508091505092915050565b6060600660008373ffffffffffffffffffffffffffffffffffffffff1673ffffffffffffffffffffffffffffffffffffffff1681526020019081526020016000206000848152602001908152602001600020805480602002602001604051908101604052809291908181526020018280548015610ecc57602002820191906000526020600020905b815481526020019060010190808311610eb8575b5050505050905092915050565b6000600360009054906101000a900473ffffffffffffffffffffffffffffffffffffffff1673ffffffffffffffffffffffffffffffffffffffff163373ffffffffffffffffffffffffffffffffffffffff1614610f6b576040517f08c379a0000000000000000000000000000000000000000000000000000000008152600401610f629061350a565b60405180910390fd5b610f8160016004546117df90919063ffffffff16565b600481905550600060045490506040518060a001604052808773ffffffffffffffffffffffffffffffffffffffff1681526020018460ff1681526020018681526020018560ff168152602001600081525060056000600454815260200190815260200160002060008201518160000160006101000a81548173ffffffffffffffffffffffffffffffffffffffff021916908373ffffffffffffffffffffffffffffffffffffffff16021790555060208201518160000160146101000a81548160ff021916908360ff1602179055506040820151816001015560608201518160020160006101000a81548160ff021916908360ff16021790555060808201518160030155905050600660008773ffffffffffffffffffffffffffffffffffffffff1673ffffffffffffffffffffffffffffffffffffffff1681526020019081526020016000206000868152602001908152602001600020600454908060018154018082558091505060019003906000526020600020016000909190919091505561115486828660ff166000368080601f016020809104026020016040519081016040528093929190818152602001838380828437600081840152601f19601f82011690508083019250505050505050611b10565b80915050949350505050565b60006005600083815260200190815260200160002060000160149054906101000a900460ff169050919050565b60606000600360009054906101000a900473ffffffffffffffffffffffffffffffffffffffff1673ffffffffffffffffffffffffffffffffffffffff166380a061606040518163ffffffff1660e01b8152600401602060405180830381865afa1580156111fe573d6000803e3d6000fd5b505050506040513d601f19601f820116820180604052508101906112229190613709565b905060008167ffffffffffffffff8111156112405761123f612a9f565b5b60405190808252806020026020018201604052801561127357816020015b606081526020019060019003908161125e5790505b5090506000600190505b8281116112cb5761128e8186611336565b8260018361129c9190613736565b815181106112ad576112ac6135a1565b5b602002602001018190525080806112c390613559565b91505061127d565b508092505050919050565b60006005600083815260200190815260200160002060000160009054906101000a900473ffffffffffffffffffffffffffffffffffffffff169050919050565b6113286113216117f5565b8383611ca5565b5050565b6000600454905090565b60606000600660008473ffffffffffffffffffffffffffffffffffffffff1673ffffffffffffffffffffffffffffffffffffffff16815260200190815260200160002060008581526020019081526020016000208054806020026020016040519081016040528092919081815260200182805480156113d457602002820191906000526020600020905b8154815260200190600101908083116113c0575b505050505090506000815167ffffffffffffffff8111156113f8576113f7612a9f565b5b60405190808252806020026020018201604052801561143157816020015b61141e6124e5565b8152602001906001900390816114165790505b50905060005b825181101561154d5760056000848381518110611457576114566135a1565b5b602002602001015181526020019081526020016000206040518060a00160405290816000820160009054906101000a900473ffffffffffffffffffffffffffffffffffffffff1673ffffffffffffffffffffffffffffffffffffffff1673ffffffffffffffffffffffffffffffffffffffff1681526020016000820160149054906101000a900460ff1660ff1660ff168152602001600182015481526020016002820160009054906101000a900460ff1660ff1660ff16815260200160038201548152505082828151811061152f5761152e6135a1565b5b6020026020010181905250808061154590613559565b915050611437565b50809250505092915050565b6000600160008473ffffffffffffffffffffffffffffffffffffffff1673ffffffffffffffffffffffffffffffffffffffff16815260200190815260200160002060008373ffffffffffffffffffffffffffffffffffffffff1673ffffffffffffffffffffffffffffffffffffffff16815260200190815260200160002060009054906101000a900460ff16905092915050565b6115f56117f5565b73ffffffffffffffffffffffffffffffffffffffff168573ffffffffffffffffffffffffffffffffffffffff16148061163b575061163a856116356117f5565b611559565b5b61167a576040517f08c379a0000000000000000000000000000000000000000000000000000000008152600401611671906137dc565b60405180910390fd5b6116878585858585611e11565b5050505050565b6116966124e5565b600560008381526020019081526020016000206040518060a00160405290816000820160009054906101000a900473ffffffffffffffffffffffffffffffffffffffff1673ffffffffffffffffffffffffffffffffffffffff1673ffffffffffffffffffffffffffffffffffffffff1681526020016000820160149054906101000a900460ff1660ff1660ff168152602001600182015481526020016002820160009054906101000a900460ff1660ff1660ff1681526020016003820154815250509050919050565b60007f01ffc9a7000000000000000000000000000000000000000000000000000000007bffffffffffffffffffffffffffffffffffffffffffffffffffffffff1916827bffffffffffffffffffffffffffffffffffffffffffffffffffffffff1916149050919050565b600081836117d7919061382b565b905092915050565b600081836117ed919061385c565b905092915050565b600033905090565b8151835114611841576040517f08c379a000000000000000000000000000000000000000000000000000000000815260040161183890613924565b60405180910390fd5b600073ffffffffffffffffffffffffffffffffffffffff168473ffffffffffffffffffffffffffffffffffffffff16036118b0576040517f08c379a00000000000000000000000000000000000000000000000000000000081526004016118a7906139b6565b60405180910390fd5b60006118ba6117f5565b90506118ca818787878787612092565b60005b8451811015611a7b5760008582815181106118eb576118ea6135a1565b5b60200260200101519050600085838151811061190a576119096135a1565b5b60200260200101519050600080600084815260200190815260200160002060008b73ffffffffffffffffffffffffffffffffffffffff1673ffffffffffffffffffffffffffffffffffffffff168152602001908152602001600020549050818110156119ab576040517f08c379a00000000000000000000000000000000000000000000000000000000081526004016119a290613a48565b60405180910390fd5b81810360008085815260200190815260200160002060008c73ffffffffffffffffffffffffffffffffffffffff1673ffffffffffffffffffffffffffffffffffffffff168152602001908152602001600020819055508160008085815260200190815260200160002060008b73ffffffffffffffffffffffffffffffffffffffff1673ffffffffffffffffffffffffffffffffffffffff1681526020019081526020016000206000828254611a60919061385c565b9250508190555050505080611a7490613559565b90506118cd565b508473ffffffffffffffffffffffffffffffffffffffff168673ffffffffffffffffffffffffffffffffffffffff168273ffffffffffffffffffffffffffffffffffffffff167f4a39dc06d4c0dbc64b70af90fd698a233a518aa5d07e595d983b8c0526c8f7fb8787604051611af2929190613a68565b60405180910390a4611b0881878787878761209a565b505050505050565b600073ffffffffffffffffffffffffffffffffffffffff168473ffffffffffffffffffffffffffffffffffffffff1603611b7f576040517f08c379a0000000000000000000000000000000000000000000000000000000008152600401611b7690613b11565b60405180910390fd5b6000611b896117f5565b9050611baa81600087611b9b88612271565b611ba488612271565b87612092565b8260008086815260200190815260200160002060008773ffffffffffffffffffffffffffffffffffffffff1673ffffffffffffffffffffffffffffffffffffffff1681526020019081526020016000206000828254611c09919061385c565b925050819055508473ffffffffffffffffffffffffffffffffffffffff16600073ffffffffffffffffffffffffffffffffffffffff168273ffffffffffffffffffffffffffffffffffffffff167fc3d58168c5ae7397731d063d5bbf3d657854427343f4c083240f7aacaa2d0f628787604051611c87929190613b31565b60405180910390a4611c9e816000878787876122eb565b5050505050565b8173ffffffffffffffffffffffffffffffffffffffff168373ffffffffffffffffffffffffffffffffffffffff1603611d13576040517f08c379a0000000000000000000000000000000000000000000000000000000008152600401611d0a90613bcc565b60405180910390fd5b80600160008573ffffffffffffffffffffffffffffffffffffffff1673ffffffffffffffffffffffffffffffffffffffff16815260200190815260200160002060008473ffffffffffffffffffffffffffffffffffffffff1673ffffffffffffffffffffffffffffffffffffffff16815260200190815260200160002060006101000a81548160ff0219169083151502179055508173ffffffffffffffffffffffffffffffffffffffff168373ffffffffffffffffffffffffffffffffffffffff167f17307eab39ab6107e8899845ad3d59bd9653f200f220920489ca2b5937696c3183604051611e0491906126e2565b60405180910390a3505050565b600073ffffffffffffffffffffffffffffffffffffffff168473ffffffffffffffffffffffffffffffffffffffff1603611e80576040517f08c379a0000000000000000000000000000000000000000000000000000000008152600401611e77906139b6565b60405180910390fd5b6000611e8a6117f5565b9050611eaa818787611e9b88612271565b611ea488612271565b87612092565b600080600086815260200190815260200160002060008873ffffffffffffffffffffffffffffffffffffffff1673ffffffffffffffffffffffffffffffffffffffff16815260200190815260200160002054905083811015611f41576040517f08c379a0000000000000000000000000000000000000000000000000000000008152600401611f3890613a48565b60405180910390fd5b83810360008087815260200190815260200160002060008973ffffffffffffffffffffffffffffffffffffffff1673ffffffffffffffffffffffffffffffffffffffff168152602001908152602001600020819055508360008087815260200190815260200160002060008873ffffffffffffffffffffffffffffffffffffffff1673ffffffffffffffffffffffffffffffffffffffff1681526020019081526020016000206000828254611ff6919061385c565b925050819055508573ffffffffffffffffffffffffffffffffffffffff168773ffffffffffffffffffffffffffffffffffffffff168373ffffffffffffffffffffffffffffffffffffffff167fc3d58168c5ae7397731d063d5bbf3d657854427343f4c083240f7aacaa2d0f628888604051612073929190613b31565b60405180910390a46120898288888888886122eb565b50505050505050565b505050505050565b6120b98473ffffffffffffffffffffffffffffffffffffffff166124c2565b15612269578373ffffffffffffffffffffffffffffffffffffffff1663bc197c8187878686866040518663ffffffff1660e01b81526004016120ff959493929190613c41565b6020604051808303816000875af192505050801561213b57506040513d601f19601f820116820180604052508101906121389190613cbe565b60015b6121e057612147613cf8565b806308c379a0036121a3575061215b613d1a565b8061216657506121a5565b806040517f08c379a000000000000000000000000000000000000000000000000000000000815260040161219a91906127c3565b60405180910390fd5b505b6040517f08c379a00000000000000000000000000000000000000000000000000000000081526004016121d790613e1c565b60405180910390fd5b63bc197c8160e01b7bffffffffffffffffffffffffffffffffffffffffffffffffffffffff1916817bffffffffffffffffffffffffffffffffffffffffffffffffffffffff191614612267576040517f08c379a000000000000000000000000000000000000000000000000000000000815260040161225e90613eae565b60405180910390fd5b505b505050505050565b60606000600167ffffffffffffffff8111156122905761228f612a9f565b5b6040519080825280602002602001820160405280156122be5781602001602082028036833780820191505090505b50905082816000815181106122d6576122d56135a1565b5b60200260200101818152505080915050919050565b61230a8473ffffffffffffffffffffffffffffffffffffffff166124c2565b156124ba578373ffffffffffffffffffffffffffffffffffffffff1663f23a6e6187878686866040518663ffffffff1660e01b8152600401612350959493929190613ece565b6020604051808303816000875af192505050801561238c57506040513d601f19601f820116820180604052508101906123899190613cbe565b60015b61243157612398613cf8565b806308c379a0036123f457506123ac613d1a565b806123b757506123f6565b806040517f08c379a00000000000000000000000000000000000000000000000000000000081526004016123eb91906127c3565b60405180910390fd5b505b6040517f08c379a000000000000000000000000000000000000000000000000000000000815260040161242890613e1c565b60405180910390fd5b63f23a6e6160e01b7bffffffffffffffffffffffffffffffffffffffffffffffffffffffff1916817bffffffffffffffffffffffffffffffffffffffffffffffffffffffff1916146124b8576040517f08c379a00000000000000000000000000000000000000000000000000000000081526004016124af90613eae565b60405180910390fd5b505b505050505050565b6000808273ffffffffffffffffffffffffffffffffffffffff163b119050919050565b6040518060a00160405280600073ffffffffffffffffffffffffffffffffffffffff168152602001600060ff16815260200160008152602001600060ff168152602001600081525090565b6000604051905090565b600080fd5b600080fd5b600073ffffffffffffffffffffffffffffffffffffffff82169050919050565b600061256f82612544565b9050919050565b61257f81612564565b811461258a57600080fd5b50565b60008135905061259c81612576565b92915050565b6000819050919050565b6125b5816125a2565b81146125c057600080fd5b50565b6000813590506125d2816125ac565b92915050565b600080604083850312156125ef576125ee61253a565b5b60006125fd8582860161258d565b925050602061260e858286016125c3565b9150509250929050565b612621816125a2565b82525050565b600060208201905061263c6000830184612618565b92915050565b60007fffffffff0000000000000000000000000000000000000000000000000000000082169050919050565b61267781612642565b811461268257600080fd5b50565b6000813590506126948161266e565b92915050565b6000602082840312156126b0576126af61253a565b5b60006126be84828501612685565b91505092915050565b60008115159050919050565b6126dc816126c7565b82525050565b60006020820190506126f760008301846126d3565b92915050565b6000602082840312156127135761271261253a565b5b6000612721848285016125c3565b91505092915050565b600081519050919050565b600082825260208201905092915050565b60005b83811015612764578082015181840152602081019050612749565b83811115612773576000848401525b50505050565b6000601f19601f8301169050919050565b60006127958261272a565b61279f8185612735565b93506127af818560208601612746565b6127b881612779565b840191505092915050565b600060208201905081810360008301526127dd818461278a565b905092915050565b6000806000606084860312156127fe576127fd61253a565b5b600061280c868287016125c3565b935050602061281d868287016125c3565b925050604061282e868287016125c3565b9150509250925092565b600060ff82169050919050565b61284e81612838565b82525050565b600081519050919050565b600082825260208201905092915050565b6000819050602082019050919050565b61288981612564565b82525050565b61289881612838565b82525050565b6128a7816125a2565b82525050565b60a0820160008201516128c36000850182612880565b5060208201516128d6602085018261288f565b5060408201516128e9604085018261289e565b5060608201516128fc606085018261288f565b50608082015161290f608085018261289e565b50505050565b600061292183836128ad565b60a08301905092915050565b6000602082019050919050565b600061294582612854565b61294f818561285f565b935061295a83612870565b8060005b8381101561298b5781516129728882612915565b975061297d8361292d565b92505060018101905061295e565b5085935050505092915050565b600081519050919050565b600082825260208201905092915050565b6000819050602082019050919050565b60006129d0838361289e565b60208301905092915050565b6000602082019050919050565b60006129f482612998565b6129fe81856129a3565b9350612a09836129b4565b8060005b83811015612a3a578151612a2188826129c4565b9750612a2c836129dc565b925050600181019050612a0d565b5085935050505092915050565b6000608082019050612a5c6000830187612618565b612a696020830186612845565b8181036040830152612a7b818561293a565b90508181036060830152612a8f81846129e9565b905095945050505050565b600080fd5b7f4e487b7100000000000000000000000000000000000000000000000000000000600052604160045260246000fd5b612ad782612779565b810181811067ffffffffffffffff82111715612af657612af5612a9f565b5b80604052505050565b6000612b09612530565b9050612b158282612ace565b919050565b600067ffffffffffffffff821115612b3557612b34612a9f565b5b602082029050602081019050919050565b600080fd5b6000612b5e612b5984612b1a565b612aff565b90508083825260208201905060208402830185811115612b8157612b80612b46565b5b835b81811015612baa5780612b9688826125c3565b845260208401935050602081019050612b83565b5050509392505050565b600082601f830112612bc957612bc8612a9a565b5b8135612bd9848260208601612b4b565b91505092915050565b600060208284031215612bf857612bf761253a565b5b600082013567ffffffffffffffff811115612c1657612c1561253f565b5b612c2284828501612bb4565b91505092915050565b60006020820190508181036000830152612c45818461293a565b905092915050565b60008060408385031215612c6457612c6361253a565b5b6000612c72858286016125c3565b9250506020612c83858286016125c3565b9150509250929050565b600080fd5b600067ffffffffffffffff821115612cad57612cac612a9f565b5b612cb682612779565b9050602081019050919050565b82818337600083830152505050565b6000612ce5612ce084612c92565b612aff565b905082815260208101848484011115612d0157612d00612c8d565b5b612d0c848285612cc3565b509392505050565b600082601f830112612d2957612d28612a9a565b5b8135612d39848260208601612cd2565b91505092915050565b600080600080600060a08688031215612d5e57612d5d61253a565b5b6000612d6c8882890161258d565b9550506020612d7d8882890161258d565b945050604086013567ffffffffffffffff811115612d9e57612d9d61253f565b5b612daa88828901612bb4565b935050606086013567ffffffffffffffff811115612dcb57612dca61253f565b5b612dd788828901612bb4565b925050608086013567ffffffffffffffff811115612df857612df761253f565b5b612e0488828901612d14565b9150509295509295909350565b600067ffffffffffffffff821115612e2c57612e2b612a9f565b5b602082029050602081019050919050565b6000612e50612e4b84612e11565b612aff565b90508083825260208201905060208402830185811115612e7357612e72612b46565b5b835b81811015612e9c5780612e88888261258d565b845260208401935050602081019050612e75565b5050509392505050565b600082601f830112612ebb57612eba612a9a565b5b8135612ecb848260208601612e3d565b91505092915050565b60008060408385031215612eeb57612eea61253a565b5b600083013567ffffffffffffffff811115612f0957612f0861253f565b5b612f1585828601612ea6565b925050602083013567ffffffffffffffff811115612f3657612f3561253f565b5b612f4285828601612bb4565b9150509250929050565b60006020820190508181036000830152612f6681846129e9565b905092915050565b60008060408385031215612f8557612f8461253a565b5b6000612f93858286016125c3565b9250506020612fa48582860161258d565b9150509250929050565b612fb781612838565b8114612fc257600080fd5b50565b600081359050612fd481612fae565b92915050565b60008060008060808587031215612ff457612ff361253a565b5b60006130028782880161258d565b9450506020613013878288016125c3565b935050604061302487828801612fc5565b925050606061303587828801612fc5565b91505092959194509250565b60006020820190506130566000830184612845565b92915050565b6000602082840312156130725761307161253a565b5b60006130808482850161258d565b91505092915050565b600081519050919050565b600082825260208201905092915050565b6000819050602082019050919050565b600082825260208201905092915050565b60006130d182612854565b6130db81856130b5565b93506130e683612870565b8060005b838110156131175781516130fe8882612915565b97506131098361292d565b9250506001810190506130ea565b5085935050505092915050565b600061313083836130c6565b905092915050565b6000602082019050919050565b600061315082613089565b61315a8185613094565b93508360208202850161316c856130a5565b8060005b858110156131a857848403895281516131898582613124565b945061319483613138565b925060208a01995050600181019050613170565b50829750879550505050505092915050565b600060208201905081810360008301526131d48184613145565b905092915050565b6131e581612564565b82525050565b600060208201905061320060008301846131dc565b92915050565b61320f816126c7565b811461321a57600080fd5b50565b60008135905061322c81613206565b92915050565b600080604083850312156132495761324861253a565b5b60006132578582860161258d565b92505060206132688582860161321d565b9150509250929050565b600080604083850312156132895761328861253a565b5b60006132978582860161258d565b92505060206132a88582860161258d565b9150509250929050565b600080600080600060a086880312156132ce576132cd61253a565b5b60006132dc8882890161258d565b95505060206132ed8882890161258d565b94505060406132fe888289016125c3565b935050606061330f888289016125c3565b925050608086013567ffffffffffffffff8111156133305761332f61253f565b5b61333c88828901612d14565b9150509295509295909350565b60a08201600082015161335f6000850182612880565b506020820151613372602085018261288f565b506040820151613385604085018261289e565b506060820151613398606085018261288f565b5060808201516133ab608085018261289e565b50505050565b600060a0820190506133c66000830184613349565b92915050565b7f455243313135353a2062616c616e636520717565727920666f7220746865207a60008201527f65726f2061646472657373000000000000000000000000000000000000000000602082015250565b6000613428602b83612735565b9150613433826133cc565b604082019050919050565b600060208201905081810360008301526134578161341b565b9050919050565b7f4e487b7100000000000000000000000000000000000000000000000000000000600052602260045260246000fd5b600060028204905060018216806134a557607f821691505b6020821081036134b8576134b761345e565b5b50919050565b7f4f6e6c79204c6f74746f2063616e2063616c6c00000000000000000000000000600082015250565b60006134f4601383612735565b91506134ff826134be565b602082019050919050565b60006020820190508181036000830152613523816134e7565b9050919050565b7f4e487b7100000000000000000000000000000000000000000000000000000000600052601160045260246000fd5b6000613564826125a2565b91507fffffffffffffffffffffffffffffffffffffffffffffffffffffffffffffffff82036135965761359561352a565b5b600182019050919050565b7f4e487b7100000000000000000000000000000000000000000000000000000000600052603260045260246000fd5b7f455243313135353a207472616e736665722063616c6c6572206973206e6f742060008201527f6f776e6572206e6f7220617070726f7665640000000000000000000000000000602082015250565b600061362c603283612735565b9150613637826135d0565b604082019050919050565b6000602082019050818103600083015261365b8161361f565b9050919050565b7f455243313135353a206163636f756e747320616e6420696473206c656e67746860008201527f206d69736d617463680000000000000000000000000000000000000000000000602082015250565b60006136be602983612735565b91506136c982613662565b604082019050919050565b600060208201905081810360008301526136ed816136b1565b9050919050565b600081519050613703816125ac565b92915050565b60006020828403121561371f5761371e61253a565b5b600061372d848285016136f4565b91505092915050565b6000613741826125a2565b915061374c836125a2565b92508282101561375f5761375e61352a565b5b828203905092915050565b7f455243313135353a2063616c6c6572206973206e6f74206f776e6572206e6f7260008201527f20617070726f7665640000000000000000000000000000000000000000000000602082015250565b60006137c6602983612735565b91506137d18261376a565b604082019050919050565b600060208201905081810360008301526137f5816137b9565b9050919050565b7f4e487b7100000000000000000000000000000000000000000000000000000000600052601260045260246000fd5b6000613836826125a2565b9150613841836125a2565b925082613851576138506137fc565b5b828206905092915050565b6000613867826125a2565b9150613872836125a2565b9250827fffffffffffffffffffffffffffffffffffffffffffffffffffffffffffffffff038211156138a7576138a661352a565b5b828201905092915050565b7f455243313135353a2069647320616e6420616d6f756e7473206c656e6774682060008201527f6d69736d61746368000000000000000000000000000000000000000000000000602082015250565b600061390e602883612735565b9150613919826138b2565b604082019050919050565b6000602082019050818103600083015261393d81613901565b9050919050565b7f455243313135353a207472616e7366657220746f20746865207a65726f20616460008201527f6472657373000000000000000000000000000000000000000000000000000000602082015250565b60006139a0602583612735565b91506139ab82613944565b604082019050919050565b600060208201905081810360008301526139cf81613993565b9050919050565b7f455243313135353a20696e73756666696369656e742062616c616e636520666f60008201527f72207472616e7366657200000000000000000000000000000000000000000000602082015250565b6000613a32602a83612735565b9150613a3d826139d6565b604082019050919050565b60006020820190508181036000830152613a6181613a25565b9050919050565b60006040820190508181036000830152613a8281856129e9565b90508181036020830152613a9681846129e9565b90509392505050565b7f455243313135353a206d696e7420746f20746865207a65726f2061646472657360008201527f7300000000000000000000000000000000000000000000000000000000000000602082015250565b6000613afb602183612735565b9150613b0682613a9f565b604082019050919050565b60006020820190508181036000830152613b2a81613aee565b9050919050565b6000604082019050613b466000830185612618565b613b536020830184612618565b9392505050565b7f455243313135353a2073657474696e6720617070726f76616c2073746174757360008201527f20666f722073656c660000000000000000000000000000000000000000000000602082015250565b6000613bb6602983612735565b9150613bc182613b5a565b604082019050919050565b60006020820190508181036000830152613be581613ba9565b9050919050565b600081519050919050565b600082825260208201905092915050565b6000613c1382613bec565b613c1d8185613bf7565b9350613c2d818560208601612746565b613c3681612779565b840191505092915050565b600060a082019050613c5660008301886131dc565b613c6360208301876131dc565b8181036040830152613c7581866129e9565b90508181036060830152613c8981856129e9565b90508181036080830152613c9d8184613c08565b90509695505050505050565b600081519050613cb88161266e565b92915050565b600060208284031215613cd457613cd361253a565b5b6000613ce284828501613ca9565b91505092915050565b60008160e01c9050919050565b600060033d1115613d175760046000803e613d14600051613ceb565b90505b90565b600060443d10613da757613d2c612530565b60043d036004823e80513d602482011167ffffffffffffffff82111715613d54575050613da7565b808201805167ffffffffffffffff811115613d725750505050613da7565b80602083010160043d038501811115613d8f575050505050613da7565b613d9e82602001850186612ace565b82955050505050505b90565b7f455243313135353a207472616e7366657220746f206e6f6e204552433131353560008201527f526563656976657220696d706c656d656e746572000000000000000000000000602082015250565b6000613e06603483612735565b9150613e1182613daa565b604082019050919050565b60006020820190508181036000830152613e3581613df9565b9050919050565b7f455243313135353a204552433131353552656365697665722072656a6563746560008201527f6420746f6b656e73000000000000000000000000000000000000000000000000602082015250565b6000613e98602883612735565b9150613ea382613e3c565b604082019050919050565b60006020820190508181036000830152613ec781613e8b565b9050919050565b600060a082019050613ee360008301886131dc565b613ef060208301876131dc565b613efd6040830186612618565b613f0a6060830185612618565b8181036080830152613f1c8184613c08565b9050969550505050505056fea2646970667358221220b9401c1a911442b1d63ff3aa14b07d0aa92af59861606b488702e0aa7cccfbfb64736f6c634300080e0033",
  "immutableReferences": {},
  "source": "//SPDX-License-Identifier: MIT\r\npragma solidity ^0.8.0;\r\n\r\nimport \"@openzeppelin/contracts/token/ERC1155/ERC1155.sol\";\r\n// Safe math\r\nimport \"@openzeppelin/contracts/utils/math/SafeMath.sol\";\r\nimport \"./SafeMath8.sol\";\r\nimport \"./ITicketNFT.sol\";\r\nimport \"./ILottery.sol\";\r\n\r\ncontract TicketNFT is ITicketNFT, ERC1155 {\r\n    // Libraries\r\n    // Safe math\r\n    using SafeMath for uint256;\r\n    using SafeMath8 for uint8;\r\n\r\n    // State variables\r\n    ILottery internal lotteryContract_;\r\n\r\n    uint256 internal currentTicketId;\r\n\r\n    // Token ID => Token information\r\n    mapping(uint256 => TicketInfo) internal ticketInfo_;\r\n    // User address => Lottery ID => Ticket IDs\r\n    mapping(address => mapping(uint256 => uint256[])) internal userTickets_;\r\n\r\n    //-------------------------------------------------------------------------\r\n    // MODIFIERS\r\n    //-------------------------------------------------------------------------\r\n\r\n    /**\r\n     * @notice  Restricts minting of new tokens to only the lotto contract.\r\n     */\r\n    modifier onlyLotto() {\r\n        require(msg.sender == address(lotteryContract_), \"Only Lotto can call\");\r\n        _;\r\n    }\r\n\r\n    //-------------------------------------------------------------------------\r\n    // CONSTRUCTOR\r\n    //-------------------------------------------------------------------------\r\n\r\n    /**\r\n     * @param   _uri A dynamic URI that enables individuals to view information\r\n     *          around their NFT token. To see the information replace the\r\n     *          `\\{id\\}` substring with the actual token type ID. For more info\r\n     *          visit:\r\n     *          https://eips.ethereum.org/EIPS/eip-1155#metadata[defined in the EIP].\r\n     * @param   _lotto The address of the lotto contract. The lotto contract has\r\n     *          elevated permissions on this contract.\r\n     */\r\n    constructor(string memory _uri, address _lotto) ERC1155(_uri) {\r\n        // Only Lotto contract will be able to mint new tokens\r\n        lotteryContract_ = ILottery(_lotto);\r\n    }\r\n\r\n    //-------------------------------------------------------------------------\r\n    // VIEW FUNCTIONS\r\n    //-------------------------------------------------------------------------\r\n\r\n    function getCurrentTicketId() external view returns (uint256) {\r\n        return currentTicketId;\r\n    }\r\n\r\n    /**\r\n     * @param   _ticketID: The unique ID of the ticket\r\n     * @return  uint32[]: The chosen numbers for that ticket\r\n     */\r\n    function getTicketNumbers(uint256 _ticketID) external view returns (uint8) {\r\n        return ticketInfo_[_ticketID].numbers;\r\n    }\r\n\r\n    /**\r\n     * @param   _ticketID: The unique ID of the ticket\r\n     * @return  address: Owner of ticket\r\n     */\r\n    function getOwnerOfTicket(uint256 _ticketID)\r\n        external\r\n        view\r\n        returns (address)\r\n    {\r\n        return ticketInfo_[_ticketID].owner;\r\n    }\r\n\r\n    function getUserTicketIds(uint256 _lotteryId, address _user)\r\n        external\r\n        view\r\n        returns (uint256[] memory)\r\n    {\r\n        return userTickets_[_user][_lotteryId];\r\n    }\r\n\r\n    function getUserTickets(uint256 _lotteryId, address _user)\r\n        public\r\n        view\r\n        returns (TicketInfo[] memory)\r\n    {\r\n        uint256[] memory userTicketIds = userTickets_[_user][_lotteryId];\r\n        TicketInfo[] memory userTickets = new TicketInfo[](\r\n            userTicketIds.length\r\n        );\r\n        for (uint256 i = 0; i < userTicketIds.length; i++) {\r\n            userTickets[i] = ticketInfo_[userTicketIds[i]];\r\n        }\r\n        return userTickets;\r\n    }\r\n\r\n    function getUserTicketsAllRound(address _user)\r\n        external\r\n        view\r\n        returns (TicketInfo[][] memory)\r\n    {\r\n        uint256 currentLotteryId = lotteryContract_.viewCurrentLotteryId();\r\n        TicketInfo[][] memory tickets = new TicketInfo[][](currentLotteryId);\r\n        for (uint256 i = 1; i <= currentLotteryId; i++) {\r\n            tickets[i - 1] = getUserTickets(i, _user);\r\n        }\r\n        return tickets;\r\n    }\r\n\r\n    function getTicketInfo(uint256 _ticketID)\r\n        external\r\n        view\r\n        returns (TicketInfo memory)\r\n    {\r\n        return ticketInfo_[_ticketID];\r\n    }\r\n\r\n    function getTickets(uint256[] memory ticketIds) public view returns (TicketInfo[] memory) {\r\n        TicketInfo[] memory tickets = new TicketInfo[](ticketIds.length);\r\n        for (uint i = 0; i < ticketIds.length; i++) tickets[i] = ticketInfo_[ticketIds[i]];\r\n        return tickets;\r\n    }\r\n\r\n    /**\r\n     * @return uint256: Total winning tickets\r\n     * @return uint8: Final number\r\n     * @return TicketInfo[]: TicketInfo of winning tickets\r\n     */\r\n    function getWinningTickets(\r\n        uint256 _lotteryId,\r\n        uint256 _randomNumber,\r\n        uint256 _firstTicketId\r\n    )\r\n        external\r\n        view\r\n        onlyLotto\r\n        returns (\r\n            uint256,\r\n            uint8,\r\n            TicketInfo[] memory,\r\n            uint256[] memory\r\n        )\r\n    {\r\n        uint8 finalNumber = uint8(_randomNumber.mod(100));\r\n        uint256 totalTickets = 0;\r\n        uint256 winningTicketsLength = 0;\r\n        for (uint256 i = _firstTicketId; i <= currentTicketId; i++) {\r\n            if (\r\n                ticketInfo_[i].numbers == finalNumber &&\r\n                ticketInfo_[i].lotteryId == _lotteryId\r\n            ) winningTicketsLength++;\r\n        }\r\n        TicketInfo[] memory winningTickets = new TicketInfo[](\r\n            winningTicketsLength\r\n        );\r\n        uint256[] memory winningTicketIds = new uint256[](winningTicketsLength);\r\n        uint256 j = 0;\r\n        for (uint256 i = _firstTicketId; i <= currentTicketId; i++) {\r\n            if (\r\n                ticketInfo_[i].numbers == finalNumber &&\r\n                ticketInfo_[i].lotteryId == _lotteryId\r\n            ) {\r\n                totalTickets = totalTickets.add(ticketInfo_[i].numberOfTickets);\r\n\r\n                winningTickets[j] = (ticketInfo_[i]);\r\n                winningTicketIds[j] = i;\r\n                j++;\r\n            }\r\n        }\r\n        return (totalTickets, finalNumber, winningTickets, winningTicketIds);\r\n    }\r\n\r\n    //-------------------------------------------------------------------------\r\n    // STATE MODIFYING FUNCTIONS\r\n    //-------------------------------------------------------------------------\r\n\r\n    /**\r\n     * @param   _to The address being minted to\r\n     * @param   _numberOfTickets The number of NFT's to mint\r\n     * @notice  Only the lotto contract is able to mint tokens. \r\n        // uint8[][] calldata _lottoNumbers\r\n     */\r\n    function Mint(\r\n        address _to,\r\n        uint256 _lotteryId,\r\n        uint8 _numberOfTickets,\r\n        uint8 _numbers\r\n    ) external onlyLotto returns (uint256) {\r\n        // Incrementing the tokenId counter\r\n        currentTicketId = currentTicketId.add(1);\r\n        uint256 ticketId = currentTicketId;\r\n        // Storing the ticket information\r\n        ticketInfo_[currentTicketId] = TicketInfo(\r\n            _to,\r\n            _numbers,\r\n            _lotteryId,\r\n            _numberOfTickets,\r\n            0\r\n        );\r\n        userTickets_[_to][_lotteryId].push(currentTicketId);\r\n        // Minting the ticket\r\n        _mint(_to, ticketId, _numberOfTickets, msg.data);\r\n        // Returns the ticket ID of minted ticket\r\n        return ticketId;\r\n    }\r\n\r\n    function setTicketWinAmount(uint256 ticketId, uint256 amount)\r\n        external\r\n        onlyLotto\r\n    {\r\n        ticketInfo_[ticketId].winAmount = amount;\r\n    }\r\n}\r\n",
  "sourcePath": "D:\\CapstoneProject\\contract-xosoblockchain\\contracts\\TicketNFT.sol",
  "compiler": {
    "name": "solc",
    "version": "0.8.14+commit.80d49f37.Emscripten.clang"
  },
  "schemaVersion": "3.4.6",
  "updatedAt": "2022-05-27T08:06:25.244Z",
  "networkType": "ethereum",
  "devdoc": {
    "kind": "dev",
    "methods": {
      "Mint(address,uint256,uint8,uint8)": {
        "params": {
          "_numberOfTickets": "The number of NFT's to mint",
          "_to": "The address being minted to"
        }
      },
      "balanceOf(address,uint256)": {
        "details": "See {IERC1155-balanceOf}. Requirements: - `account` cannot be the zero address."
      },
      "balanceOfBatch(address[],uint256[])": {
        "details": "See {IERC1155-balanceOfBatch}. Requirements: - `accounts` and `ids` must have the same length."
      },
      "constructor": {
        "params": {
          "_lotto": "The address of the lotto contract. The lotto contract has          elevated permissions on this contract.",
          "_uri": "A dynamic URI that enables individuals to view information          around their NFT token. To see the information replace the          `\\{id\\}` substring with the actual token type ID. For more info          visit:          https://eips.ethereum.org/EIPS/eip-1155#metadata[defined in the EIP]."
        }
      },
      "getOwnerOfTicket(uint256)": {
        "params": {
          "_ticketID": ": The unique ID of the ticket"
        },
        "returns": {
          "_0": "address: Owner of ticket"
        }
      },
      "getTicketNumbers(uint256)": {
        "params": {
          "_ticketID": ": The unique ID of the ticket"
        },
        "returns": {
          "_0": "uint32[]: The chosen numbers for that ticket"
        }
      },
      "getWinningTickets(uint256,uint256,uint256)": {
        "returns": {
          "_0": "uint256: Total winning tickets",
          "_1": "uint8: Final number",
          "_2": "TicketInfo[]: TicketInfo of winning tickets"
        }
      },
      "isApprovedForAll(address,address)": {
        "details": "See {IERC1155-isApprovedForAll}."
      },
      "safeBatchTransferFrom(address,address,uint256[],uint256[],bytes)": {
        "details": "See {IERC1155-safeBatchTransferFrom}."
      },
      "safeTransferFrom(address,address,uint256,uint256,bytes)": {
        "details": "See {IERC1155-safeTransferFrom}."
      },
      "setApprovalForAll(address,bool)": {
        "details": "See {IERC1155-setApprovalForAll}."
      },
      "supportsInterface(bytes4)": {
        "details": "See {IERC165-supportsInterface}."
      },
      "uri(uint256)": {
        "details": "See {IERC1155MetadataURI-uri}. This implementation returns the same URI for *all* token types. It relies on the token type ID substitution mechanism https://eips.ethereum.org/EIPS/eip-1155#metadata[defined in the EIP]. Clients calling this function must replace the `\\{id\\}` substring with the actual token type ID."
      }
    },
    "version": 1
  },
  "userdoc": {
    "kind": "user",
    "methods": {
      "Mint(address,uint256,uint8,uint8)": {
        "notice": "Only the lotto contract is able to mint tokens.  // uint8[][] calldata _lottoNumbers"
      }
    },
    "version": 1
  }
}